:020000041000EA
:1000000000B5324B212058609868022188439860DF
:10001000D860186158612E4B002199600421596104
:100020000121F02299502B49196001219960352056
:1000300000F044F80222904214D00621196600F024
:1000400034F8196E01211966002018661A6600F04E
:100050002CF8196E196E196E052000F02FF8012189
:100060000842F9D1002199601B49196000215960AB
:100070001A491B48016001219960EB211966A021F2
:10008000196600F012F800219960164914480160C1
:100090000121996001BC002800D000471248134993
:1000A000086003C880F30888084703B5996A0420EC
:1000B0000142FBD001200142F8D103BD02B5186610
:1000C0001866FFF7F2FF186E186E02BD00000240BE
:1000D000000000180000070000035F00212200005C
:1000E000F4000018222000A00001001008ED00E03C
:1000F000000000000000000000000000070B8FD58A
:1001000000040420C5020010916B0010C70200100B
:10011000C7020010C7020010C7020010C70200107B
:10012000C7020010C7020010C7020010C70200106B
:10013000C7020010C7020010C7020010C70200105B
:10014000557700108D770010C5770010ED770010FF
:10015000C70200102D7A0010C7020010395100109C
:10016000C7020010C7020010C7020010C70200102B
:10017000C7020010C7020010C7020010496C00102F
:10018000696C0010C7020010C7020010C7020010FF
:10019000C7020010C7020010C7020010C7020010FB
:1001A000C7020010C7020010C7020010C7020010EB
:1001B000C7020010C7020010C7020010C7020010DB
:1001C00072B62C4880F308882B4880F309880220F7
:1001D00080F31488BFF36F8F28482949086006F020
:1001E00003F805F0B0FB27482749224A914202DA7A
:1001F00008600431FAE725491F4A914202DA086093
:100200000431FAE72249234A234B14469A4204DA7E
:100210000868106004310432F8E719490C601F497E
:100220001F4A204B9A4204DA0868106004310432F5
:10023000F8E700201C491D4A914202DA08600431A7
:10024000FAE705F0D3FF04F015FE194C194DAC4246
:1002500003DA216888470434F9E702F0F7FF164C07
:10026000164DAC4203DA216888470434F9E7144993
:100270000847000000040420000C042000010010C6
:1002800008ED00E0555555550000042000040420F9
:100290000001001000010010C00100105C8F001070
:1002A00000000020980C0020980C00201429002049
:1002B000C0010010C0010010C0010010C0010010FA
:1002C000EB6100107CE700F000F8FEE7F0B5444673
:1002D0004D4656465F46F0B46B46CB60C3689D46BC
:1002E000F0BCA046A946B246BB46F0BD06F0CFFC26
:1002F00062B6281CA047002006F045FBFEE706F08A
:100300003FFA024A024B1360FEE7C04604ED00E0EC
:100310000000008002B471464908490009564900AE
:100320008E4402BC7047C04602B471464908490079
:10033000095C49008E4402BC7047C04603B4714654
:10034000490840004900095A49008E4403BC7047DF
:100350007047C046414208401C2101231B049842BB
:1003600001D3000C10391B0A984201D3000A083946
:100370001B09984201D30009043902A2105C401AFB
:100380007047C0461B1C1D1D1E1E1E1E1F1F1F1F4B
:100390001F1F1F1F9E2110B5C905041C00F0F8FB8C
:1003A00000280AD09E21201CC90500F0E5F900F0C4
:1003B00065FB80231B06C01810BD201C00F05EFBEF
:1003C000FAE70000F0B5C30F85B044024500039181
:1003D000640A2D0E01932DD0FF2D38D08023E40028
:1003E000DB047F3D1C4302950027039B5D025E00FA
:1003F000DB0F6D0A360E03932FD0FF2E3AD08023E9
:10040000ED00DB041D4333007F3B0022039801997C
:1004100041400298C31AB800104301380E2842D850
:10042000FFF782FF6CA77EA79CA77E6C6C9C7E2E3C
:100430002E2E720001270294AC42D6D0200000F08C
:10044000B1FB773F431F9C403B1A0293CCE7032745
:100450000295002CC9D1013FC7E72B000122B5420C
:10046000D4D0280000F09EFB431F9D4076235B42C2
:100470001B1ACAE733000322002DC7D1013AC5E792
:100480003A000199022A39D0032A00D16FE00025F1
:100490002800012A1ED16D026D0AC0052843C90734
:1004A000084305B0F0BD64016D01AC4228D31A20A9
:1004B0000122641B0126270052006400002F01DB8B
:1004C000A54201D8641B324301380028F3D1601ED5
:1004D0008441144318007F30002824DD620704D0D3
:1004E0000F222240042A00D00434220103D5803395
:1004F0001800234A1440E508FE28CCDD00250DE055
:100500001B200022013BD5E78023DB031C4201D0E6
:100510001D4228D080250199ED032543FF20BAE72D
:100520002C000399AEE702001A3222DB9E3301222F
:1005300025009C40121AD540631E9C4125436B0741
:1005400004D00F232B40042B00D004358023280037
:10055000DB0418401D420FD1ED089CE700238024E6
:100560000193E403D6E7039B2C000193D2E70191AA
:10057000D0E7002528008EE7002501208BE7C04644
:10058000FFFFFFF7F0B5C30F85B0470244000391AA
:100590007F0A240E02930AD0FF2C72D080227F3C67
:1005A00026000023FF00D204174301930DE001232E
:1005B0003E000193A74208D0380000F0F3FA7626F7
:1005C000431F9F407642361A0194039B5C025D00F4
:1005D000DB0F640A2D0E03935AD0FF2D64D08023C5
:1005E0002800E400DB041C437F38002301998619AE
:1005F0008800721C18430A2800DD7EE00299039DE2
:1006000069400291022855DC0138012864D9B9B249
:100610000D003B0C200CA4B2654341435C434343B3
:1006200009191F002B0C5B189C4202D9802149023A
:100630007F181904ADB24D19AC01611E8C411B0C21
:10064000AD0EDB192C439B011C431B0167D5012315
:1006500061081C400C4310007F30002861DD6307F7
:1006600004D00F232340042B00D00434230103D5EE
:10067000803210003F4B1C40E108FE2834DD002191
:100680004BE0032326000193002F9ED1013B8CE712
:1006900020000123AC42A9D000F084FA431F9C4003
:1006A00076235B42181AA0E728000323002C9DD173
:1006B000013B9BE701218140A6200D00C0000540C1
:1006C00001421ED190208000014245D1B938FF3847
:1006D00001429CD003990291022BD0D0032B41D030
:1006E00000210800012BB6D1029B4902490AC0052E
:1006F0000843DB07184305B0F0BD0F2804D00B28D2
:10070000E8D03C00019BE7E78023DB031F4201D0D8
:100710001C4225D08021C9033943FF20E4E7320081
:1007200099E703001A331FDB01239E322100944016
:100730001B1AD940631E9C4121434B0704D00F2351
:100740000B40042B00D0043180230800DB04184048
:1007500019420CD1C908C7E780270295FF03D9E7E2
:10076000039B02932700D5E700210800BCE7002186
:100770000120B9E7FFFFFFF7F0B543025A0A85B041
:100780004F02440002924E007A0A9446C50F00922E
:10079000240E9B09360EC80FD200FF2E02D1010095
:1007A000002A01D101214140A01BA94200D093E0C1
:1007B000002836DD002E13D1B24207D0461E012894
:1007C00002D104009B181EE0FF2810D1DB08FF288F
:1007D0005ED1002B5CD08022D203FF20134357E070
:1007E000FF2C00D13DE180210600C9040A4301210C
:1007F0001B2E07DC2020801B11008240F140501E80
:10080000824111435B185A0100D412E1601CFE2C96
:1008100000D1D6E0964A59081140012213400B43FB
:1008200058E0002820D0301B002C08D1A34204D06F
:10083000441E0128C5D0FF2808D11300C6E7FF2EAB
:1008400000D108E180210400C9040B4301211B2CC5
:1008500007DC2020001B19008340E140581E834123
:10086000194334008B18CEE7FE21601C08422DD1BD
:10087000002C18D1A34200D1EBE0A24200D1DFE06E
:100880009A182000D308520102D50120794A13405A
:10089000FF22C005D2055B0210405B0A1843ED073A
:1008A000284305B0F0BD002B00D1D4E0002A00D1D0
:1008B000D2E080210298C903884203D3009888427D
:1008C00000D21300DB089C46019581E0FF2878D018
:1008D0009B185B080400ACE0002827DD002E1DD12A
:1008E000B24200D172E7461E012802D19B1A0400D1
:1008F0000EE0FF2800D169E701211B2E07DC202034
:10090000801B11008240F140501E824111435B1A4E
:100910005A0100D48DE09B019E0970E0FF2C00D1AC
:100920009FE08021C90406000A43E5E7002825D09E
:10093000301B002C0CD1A34207D0441E012802D149
:100940000D00D31AD3E7FF2809D113000D003DE7AE
:10095000FF2E00D182E08024E40423430400012020
:100960001B2C07DC18002025E0402C1BA3405C1E3C
:10097000A341184334000D00131AC9E7FE27661C73
:1009800003963E400196039E3E4233D184421AD1E3
:10099000834206D11D00824200D179E70D00009B01
:1009A00076E7002A4CD09E1A770106D50D00D31A9F
:1009B0000020834200D16BE78CE7331E00D005E7AF
:1009C0002500002364E7002B05D19A424BD001910A
:1009D0006346019DFFE6002A3ED08020029CC003B2
:1009E000844200D26EE7009C844200D36AE7130081
:1009F0000D0067E79E1A770114D50D00D61A300056
:100A000000F0D0F833000538834084420EDC202209
:100A1000001B0130121A19009340C1405A1E934125
:100A20000B43C5E7002EEAD10500CAE7124A241A93
:100A300013405A0704D00F221A40042A00D004336E
:100A40005A010ED5601CFE2CBBD00A4ADB081340AD
:100A50001EE71300ACE71300FF20B7E613000D00FC
:100A6000FAE72000B2E68023DB039C46B0E7C046ED
:100A7000FFFFFF7DFFFF7F1FFFFFFFFB41024300E2
:100A8000C20F490A00201B0E7E2B03DD9D2B02DDC9
:100A9000084BD0187047802000040843952B05DDD3
:100AA000963B9840002AF5D04042F3E79621CB1AB6
:100AB000D840F7E7FFFFFF7F002370B5040098429E
:100AC00009D000F06FF89E231B1A072808DD0828BC
:100AD00029D0083884406402D805640A204370BDD8
:100AE000124904281ADC020025001B3295402A0016
:100AF000551EAA4105252D1AEC40144322000A4038
:100B0000650709D00F252C40042C05D00432540170
:100B100002D59F230A401B1AD408DCE70528EDD034
:100B2000421F9440EAE79623D5E7C046FFFFFFFB4C
:100B3000844608006146FFE71FB500F0B5F80028BD
:100B400001D40021C8421FBD10B500F049F8404251
:100B5000013010BD10B500F0A7F8002801DB00201F
:100B600010BD012010BDC04610B500F09DF8002852
:100B700001DD002010BD012010BDC04610B500F001
:100B800054F8002801DC002010BD012010BDC04633
:100B900010B500F04AF8002801DA002010BD01204D
:100BA00010BDC0461C2101231B04984201D3000C38
:100BB00010391B0A984201D3000A08391B099842D0
:100BC00001D30009043902A2105C40187047C046E6
:100BD0000403020201010101000000000000000006
:100BE00070B5420244004E024D00C30F520A01206C
:100BF000240E760A2D0EC90FFF2C06D1002A13D120
:100C0000FF2D11D1002E06D00EE0FF2D0CD0AC42EE
:100C10000AD1B24208D100208B4205D00130002C0D
:100C200002D1531E9A41100070BD70B54A024402B1
:100C30004500640A2D0EC30F520ACE0FFF2D12D0AD
:100C40004900090EFF2901D1002A0ED120002843B6
:100C500000290CD000280ED0B34217D00120002B61
:100C600013D0404211E0002CEAD00220F9E788427C
:100C700006D1824209D00120002E06D1023804E0BC
:100C8000002AE9D101209342EBD170BD8D42E5DC11
:100C900001208D4205DB9442E0D800209442F4D23A
:100CA0000130002BF1D1E9E770B54A02440245005A
:100CB000640A2D0EC30F520ACE0FFF2D12D0490029
:100CC000090EFF2902D10220002A0ED1200028435C
:100CD00000290BD000280DD0B34217D00120002BE3
:100CE00003D011E00220002CE9D070BD884206D16B
:100CF0008242FAD00120002EF7D10238F5E7002A0F
:100D0000EAD101209342F0D04042EEE78D42E5DC8B
:100D100001208D4205DB9442E0D800209442E4D2C9
:100D20000130002BE1D1E8E77FB58C794B782609BB
:100D3000E407E40F0A78039602944C8801944979F9
:100D400000910100024802F07FFD012004B070BD57
:100D5000A48800100123002809D1092907D8052AF1
:100D600005D805334B4303489B185B001B5A1800FA
:100D70007047C046988B001010B5FFF7EBFF10BD11
:100D8000012070470120704710B5FFF7FBFF10BD31
:100D9000012070470120704710B5FFF7C5FF10BD57
:100DA0007047704710B5FFF7FCFF10BD012070477A
:100DB0007047704713B5019110496B460978009050
:100DC000002915D15B798B420DD08A420BD000F0FF
:100DD000C9FD04000100009800F098FD2000009972
:100DE00001F03EFC16BD009800F0A6FD0400F5E7FA
:100DF000009800F0B7FD0099F2E7C046A00C002073
:100E000010B50400638800881B040A001843A188F9
:100E1000FFF7D0FF10BD10B504000121FFF7F0FF70
:100E20002100FFF7ADFF002806D001212000FFF7C9
:100E3000E7FF2100FFF7A8FF10BD70B500210400F7
:100E4000FFF7DEFF05002100FFF7AAFF28002100C1
:100E5000FFF7A8FF70BD0123834010B598B200F0E2
:100E6000A8FC10BD10B504000120A04080B201F024
:100E700009FA2000FFF7EFFF10BD0120704710B501
:100E8000FFF7FBFF10BD000010B5040000F040FCB0
:100E90002000FFF78BFF2000FFF7F1FF014805F06E
:100EA0007AFD10BD90D0030010B50120FFF7ECFFD4
:100EB00003F0D6FF10BD10B50020FFF7E5FF03F0EB
:100EC000C1FF10BD70B504000D00FFF763FF0028DF
:100ED0003DD029002000FFF75FFF002837D0290010
:100EE000200003F027FC002831D02900200003F067
:100EF0004FF800282BD02900200003F01FF800280D
:100F000025D02900200001F0C7FC00281FD06B79F4
:100F1000002B16D01E4B9C420AD8033B9C4210D398
:100F20001C4BE018022810D8FFF7FEF92613240006
:100F3000194B9C4229D0194B9C4220D0184B9C4203
:100F400020D02800FFF724FF02E0FFF7ADFF0020CC
:100F500070BD0122140013480378D907C90F8C43D0
:100F60009343234303701048134200D10F4802F00B
:100F70006BFCECE701F076F9FFF79DFFE7E701F086
:100F80002FF9DEE701F038F9DBE701F03AF9D8E7AD
:100F9000037C0000FF83FFFF5B7C00005C7C0000A3
:100FA0005A7C0000800D0020F48800100589001094
:100FB00010B504000121FFF723FF2100FFF782FF96
:100FC00010BD10B5FFF7F4FE03F073FE00F02FF82C
:100FD00010BD10B500F030F8FFF7EBFE03F06EFE29
:100FE00010BD332203010009184340B2830080087A
:100FF0001040934303435BB2223258005B08904396
:1010000013401843C0B2704701207047704770B555
:10101000051CFFF7F9FF041E02D0281CFFF7F6FF9E
:10102000200070BD704710B5FFF7F1FF10BD10B57F
:101030000020FFF7F8FF10BD10B503F0DDFBFFF750
:10104000F2FF10BD10B503F0D7FB0C4B04001A786B
:10105000824211D0187003F0B1FE094B1860094BA1
:101060001A7805231340052B03D12100064802F00E
:10107000EBFB2000FFF7D7FF10BDC046980C002007
:101080009C0C0020800D00201789001030B50B0A41
:1010900085B0DBB26C4600900191002B01D000F0CE
:1010A0004FFF00236A46D381009B02AD0293A388C1
:1010B000AB80104B5B785B070CD500F0F3FE00288B
:1010C00002D0022001F050F800F0CEFE002801D03E
:1010D00000F090FF2B79002B05D10298696800F091
:1010E00067FE05B030BD2800FFF795FE0028F4D15B
:1010F000F7E7C046D4270020037910B5012B02D1B1
:10110000008800F051FC10BD10B5002904D003F098
:1011100093F803F059F910BD03F0E2F8F9E7000085
:1011200010B5041E11D0031FDBB2A02B0ED803F0A4
:1011300045FC002804D0200003F0E2FC00F0D0FFC2
:10114000200003F0C1FC00F0CBFF10BD03002033F2
:10115000DBB2072B07D80723034001209840C0B219
:1011600000F0C8FEEFE703005B33DBB2022B04D8CC
:10117000243CA0B203F0CAFBE7E703005833DBB21C
:101180001A2B05D8074A5B00985A03F0D9FBDCE715
:1011900003003333DBB2122BD7D803F04DF803F042
:1011A00013F9D2E7108C001010B5002807D0031FE8
:1011B000DBB2A02B04D803F0A3FC00F091FF10BD1C
:1011C00003002033DBB2072B07D80723034001209D
:1011D0009840C0B200F096FEEFE703005B33DBB24D
:1011E000022B03D8002003F091FBE8E703005833FB
:1011F000DBB21A2B03D8002003F0A2FBDFE70300C9
:101200003333DBB2122BDAD803F06AF803F0DCF8E0
:10121000D5E7000070B504000D00FFF781FF012045
:10122000002D0ED000230A4A2800002107F07CFA86
:101230000023084A80185941FA220023920007F03F
:101240008BFA05F0A8FB2000FFF7AEFF70BDC0468B
:1012500040420F00E7030000002110B5392800D1FB
:101260005031FFF7D7FF10BD10B5002803D000F0B4
:1012700041FE00F035FF10BD10B5002803D000F08E
:1012800041FE00F02DFF10BDF0B585B087790C1C34
:101290004579029000F01EFE3F0623043F0F0190A7
:1012A0000393002828D00195002D25D023041B0E80
:1012B0000F221900914340290FD0E1B20A0000200B
:1012C0002032D2B20190072A16D91F229343202B35
:1012D00003D1012910D987420ED00022AC4B0192D4
:1012E0005B785B0708D5022000F03EFF00F0F2FDBE
:1012F00001234340DBB201932304180F0B283ED88F
:10130000FFF71CF80C000C0057005700C600DB006C
:101310003D003D00E0003901510151012605230443
:10132000360F1B0E0F2B00D93601E4B2002D12D060
:10133000002E0BD023002033DBB23000072B01D965
:10134000002C05D100F0D6FD00F0CAFE200051E0CF
:1013500000F0E6FDF8E72000FFF726FFAE420ED0D2
:1013600023002033DBB23000072B01D9AC4202D17D
:1013700000F0C8FD01E000F0DBFD00F0B1FE019BD4
:10138000002B00D1C0E000F085FD012302001A40CF
:10139000184200D0B8E0029B5A7100F075FD00F0D1
:1013A00047FA029800F07CF900F06EFD00F04CFA6C
:1013B000AAE00F22230426051B0E360F9343202B91
:1013C00000D03601E4B2002C06D0012C49D0002D0B
:1013D00052D0002F1CD0B9E76D4B5B785B0713D45C
:1013E000A5420AD0A64204D0300000F083FD00F0F0
:1013F00077FE0020FFF794FEC1E72800FFF7D4FE38
:10140000002EBCD03000B3E7002D17D0002F03D141
:101410003000FFF729FFB2E7012F03D1300000F0C1
:10142000BDFDACE7052FAAD13000FFF71DFF30004E
:1014300000F0CAFD300000F08FFDA0E7AF4209D1F7
:101440003000FFF719FF300000F0BEFD300000F063
:1014500091FD94E7012F92D100F046FD06428ED017
:10146000EEE7002D02D0052F89D8D1E7042F86D8CA
:101470003000FFF701FF82E7AF42F9D00120392C9D
:1014800000D1444805F087FA2000FFF78DFE76E78B
:101490002005800F0AD0012800D070E70020854287
:1014A00001D0A005800D03F04BFA68E7854201D01A
:1014B000A005800D03F02AFA61E72900E0B2FFF7EA
:1014C00023FE5CE723049B019B0F28D19D4217D18B
:1014D00023065B0F9B002207DBB2120F9A40E10646
:1014E00002D50F259D40ED4324051543A40FA8B256
:1014F000022C0ED0032C0FD0012C07D000F068F97D
:1015000003F07AF9FFF78FFD05B0F0BD00F056F952
:10151000F6E700F067F9F3E700F04BF9F0E7A30511
:101520009A0F002D1BD0D207EAD523065B0F9B0034
:101530002207DBB2120F9A400020E10602D50F30DD
:101540009840C04324051043A40F80B2022C0CD055
:10155000032C0DD0012C05D000F098F9D0E7012A1A
:10156000CED9E2E700F088F9CAE700F099F9C7E7B9
:1015700000F048F9C4E7E6B22405240F002D0BD093
:10158000200000F055F93000FFF76EFEB8E7C046C6
:10159000D4270020803801003000FFF76DFE2000C6
:1015A00000F052F9ACE7E6B23000F03804284BD82E
:1015B000FEF7BAFE032510172100002D06D0042FD8
:1015C0009ED8E004C00E00F04BF999E7052F00D932
:1015D00096E7F6E7E004C00E002DE1D100F028F90F
:1015E0008EE7002D04D0E004C00E00F01AF987E762
:1015F00000F012F984E7204B5B785B0704D4E00429
:10160000C00E002DCCD0E9E7002D11D000F042FC37
:10161000042804D100F09AFDE004C00EC0E7042FB6
:1016200000D96DE70321E004C00E00F071FD67E70B
:10163000042F05D900F08AFDE0040421C00EF4E770
:10164000012000F091FD5BE7002D08D0002F03D0B2
:101650003000FFF765FD53E7E004C00EBEE7AF4280
:10166000DAD00120392E00D1044805F094F9300079
:10167000FFF79AFD44E7C046D427002080380100D8
:1016800070B504002188407900F098F9051C00F03D
:1016900011F900F08DF8291C2000FFF7F5FD70BD51
:1016A000037910B50400002B11D0FFF781FC00284E
:1016B0000ED100F00FFC002809D06379002B06D072
:1016C000074B5B785B0702D5022000F04DFD10BD93
:1016D0002000FFF7D5FF2000FFF7AFFBF7E7C0467C
:1016E000D427002010B5002003F010F9002003F0EB
:1016F00027F900F025FC00F0F3FC02F0D9FE02F01F
:1017000063FE10BD10B503F017FAFFF7EBFF10BD35
:1017100010B500F0FFFBFFF7F5FF10BDC2B20004EB
:10172000000F062817D00F2306280DD80E300340CF
:101730000020012B07D80120F02A04D006D8002071
:10174000E7239342404170470630F0E7F43A5042B5
:101750005041C0B2F7E71000F13843425841E72149
:10176000002391425B411843EDE70300027900201A
:1017700010B5824204D0188800F016F9FFF7CEFFAA
:1017800010BD82B002B0704782B002B0704770479F
:1017900010B5FFF7FCFF10BD7047000010B5FFF754
:1017A000FBFFFFF7F5FF014B188010BDC40C0020B4
:1017B000704710B5FFF7F2FF10BD0000034B10B5E6
:1017C0001B88184380B2FFF7E9FF10BDC40C00204E
:1017D00010B5034B1B881840FFF7E0FF10BDC04653
:1017E000C40C0020034B10B51B88584080B2FFF793
:1017F000D5FF10BDC40C0020704710B5FFF7FCFFEB
:1018000010BD704710B5FFF7FCFFFFF7F6FF014B67
:10181000188010BDC20C002010B50020FFF7F2FFA9
:1018200010BD0123834010B598B2FFF7EBFF10BD48
:1018300001238340034A10B51288134398B2FFF77F
:10184000E1FF10BDC20C002001238340034A10B504
:101850001088984380B2FFF7D5FF10BDC20C00205E
:1018600001238340034A10B51288534098B2FFF712
:10187000C9FF10BDC20C0020034B10B51B881843D4
:1018800080B2FFF7BFFF10BDC20C002010B5034BA4
:101890001B881840FFF7B6FF10BDC046C20C0020E1
:1018A000034B10B51B88584080B2FFF7ABFF10BD4B
:1018B000C20C0020704770B50125CB089B00D218E0
:1018C00007232E0019408E4000210300CB40545CBA
:1018D0002B405B42634033405C4054540131042947
:1018E000F3D170BD30B5072400220440C008800049
:1018F0000918012510008B5CE3402B409340013216
:101900001843C0B2042AF6D130BD000013B5030A53
:1019100001AADBB210800800092B09D8117805292B
:1019200006D806246343C918024A89B2FFF7C3FFE9
:1019300013BDC046A10C002007B5020A01ABD2B20C
:1019400018800020092A09D81B78052B06D8062004
:1019500050431818024980B2FFF7C4FF0EBDC046BD
:10196000A10C0020F7B50F2401270D4B0D4A1B8851
:10197000128801AE13439BB230800093009B234139
:101980003B4204D1013CF9D200252800FEBDE5B25E
:101990002800316800F074FE80B20128F2D0F4E72C
:1019A000C20C0020C40C002007B501AB18800198C0
:1019B000FFF7D8FF019900F063FE0EBD13B501AB30
:1019C00019800E4B1B78002B03D00198FFF7ECFF1A
:1019D00016BD98420CD00198FFF7C4FF0400010027
:1019E0000198FFF793FF2000019900F049FEEFE70F
:1019F0000198FFF7A1FF0400F5E7C046A00C002006
:101A000070B507250B4B1C780B4B1B78A34200D1FC
:101A100070BD0A4BE200D15A9B1858889A8800047E
:101A20000843D988013409041143FFF7ADFE2C4067
:101A3000EAE7C046C60C0020C70C0020C80C0020F6
:101A4000064B10B558881A88D988000410439A8824
:101A500009041143FFF798FE10BDC046080D002091
:101A6000F7B51D4883790F2B31D84379002B2ED041
:101A70001A4A1B4B12781B78019245780678194C4C
:101A8000019A934223D0D9000A191779002F1FD049
:101A90005778AF421CD1095DB14219D15179002963
:101AA00016D147885188BC466746C91B89B2C729E9
:101AB0000ED80F241021837923400B43837193792F
:101AC000234019439171FFF7EBFDFFF799FFF7BD35
:101AD000072201331340D3E7080D0020C70C002074
:101AE000C60C0020C80C0020F7B50E4C0E4B247815
:101AF0001B7801940D4C019DAB4201D10020FEBD2D
:101B0000DE00A5196F788F4205D1365D864202D17D
:101B10006D79954203D1072501332B40EBE7012076
:101B2000EDE7C046C70C0020C60C0020C80C002002
:101B3000F0B5050089B00622010004A806F0D2FD28
:101B40009A4C6E7923792A79002B18D19A4200D1C8
:101B5000DDE09E4200D11FE12800FFF706FE0028CD
:101B600000D119E108222900200006F0BBFD200069
:101B7000FFF7C2FAFFF774FFFFF762FFC7E06B8859
:101B80002F7803936379039902936388CB1A0299A0
:101B90009BB2002900D1D1E0C72B00D991E0002AE7
:101BA00000D1B4E06B7862780193A37901990F2B8F
:101BB00057D8914214D12278BA4211D1002E4AD17D
:101BC0000F22134001321343A371FFF739FF2000A6
:101BD000FFF766FDA379AB710024200009B0F0BDCA
:101BE000002E38D1320001993800FFF77DFF320016
:101BF00038000199FFF778FF0400B042ECD1049857
:101C0000FFF7D2FEC3B200040F21020F032A08D847
:101C1000012A0FD9000E014211D0AA790F2A0ED83D
:101C2000DBE706320A40012A0ED92800FFF738FD0B
:101C3000029CD2E7000E014201D0002BCDD0203310
:101C4000DBB2072BC9D9F0E7EF2BC6D90F33DBB2D4
:101C5000022BC2D9E9E70123544A91790B439371CE
:101C6000BAE791420ED12278BA420BD1002E09D1A7
:101C7000AB712800FFF714FD08222900200006F0B0
:101C800031FD79E72800FFF770FD002800D183E0DF
:101C9000002E00D180E0454B9A791F2A0BD9198874
:101CA00006A80180039941801B798271037100238A
:101CB0004371FFF7F5FC082229003C4806F012FDAD
:101CC00058E7A3790F2B0ED804980599FFF759FD13
:101CD0002000FFF7E5FC08220021200006F0FAFCB6
:101CE000FFF7AEFE78E7002A11D061786A7891425A
:101CF0000FD12278BA420CD1002E0AD12800AB7144
:101D0000FFF7CEFC08223100200006F0E3FC01249E
:101D100063E72800FFF729FD00283DD0002E3BD0C7
:101D2000A3791F2BC7D9228806A80280039A428074
:101D300022798371027100224271BAE7C72B2FD832
:101D40008A42E4D08E4227D062786B789A421AD1C8
:101D50002378BB4217D1A379DA070ED40F2B0CD905
:101D60000F22AB719343F02B83D00F21AB791A096B
:101D7000013212010B4013437AE7082229002000A8
:101D800006F0B0FCC3E72800FFF7EFFC002892D173
:101D90000123A2791343A3712800FFF781FCB6E762
:101DA00004980599FFF7EDFC95E7C046080D002063
:101DB000F0B585B0009068466C460191FFF7B8FE1B
:101DC0002379071E244E254D0CD0002B03D00098FC
:101DD0000199FFF7D9FC072728783378834222D16D
:101DE00005B0F0BD02AA03CC03C2BB42F3D0072268
:101DF00033785C1C14402A7894420AD01848DB00DF
:101E00000822C01802A906F06DFC3470FFF7F8FD37
:101E1000E1E7FFF77DFC08223900124837702F7088
:101E200006F058FCD7E70E4CC0000019FFF780FE03
:101E30000028D5D02B78DB001A5BE4186088E18895
:101E4000A3880004090419431043FFF79DFC2B7875
:101E500001333B402B70BFE7C70C0020C60C0020AD
:101E6000C80C0020080D002010B502F0E5FF044B5F
:101E70001B88C31A03489BB298428041404210BD60
:101E80003C0D002087130000014B1878C0087047F4
:101E90003A0D00200720024B1B7818407047C046BF
:101EA0003A0D002010B502F0C7FF074B074A1B8808
:101EB000C31A9BB20020934205D9054B1878012321
:101EC0004007C00F584010BD380D00208713000098
:101ED0003A0D00200720034B1B781840431E984101
:101EE000C0B270473A0D0020014B18787047C046C9
:101EF000690D0020024B1A78104318707047C046D5
:101F0000690D0020024A1378834313707047C0465E
:101F1000690D00200022014B1A707047690D0020E6
:101F2000024B1A78104318707047C046680D0020A5
:101F3000024A1378834313707047C046680D00202F
:101F40000022014B1A707047680D0020704710B5D1
:101F5000FFF7FCFF10BD0000010010B5044A137824
:101F60001940814203D018431070FFF7F0FF10BDF5
:101F70003E0D002010B5054A1378184204D0834363
:101F800018001370FFF7E3FF10BDC0463E0D0020A0
:101F9000704710B5FFF7FCFF10BD000070B5084D8D
:101FA00004002B780340834209D002F045FF054B23
:101FB00018802B78200023432B70FFF7EAFF70BDB9
:101FC0003F0D00203C0D002010B5084C237818422E
:101FD0000BD0834300202370834201D002F02CFFFA
:101FE000034B18802078FFF7D4FF10BD3F0D002071
:101FF0003C0D002010B5054B1A78002A05D00020B2
:102000001870034B1880FFF7C4FF10BD3F0D002070
:102010003C0D002070B5114A114B14781B78114DFE
:102020001C432B78E4B2002B15D0FFF71DFF0028CE
:1020300008D00D4B1B78DB0702D50C4801F004FCDF
:10204000FFF7D8FF2B781C43E4B202F093FC002882
:1020500001D0FFF7CFFF200070BDC046690D002002
:10206000680D00203F0D0020800D00202789001002
:1020700070B50B4C2568FFF7CDFF28702468082247
:102080002000084906F018FB002807D0082221008C
:10209000044806F027FB200002F0C4FB70BDC046D8
:1020A000FC070020300D002070B50B4C2568FFF7B1
:1020B000B1FF6870246820222000084906F0FCFA6D
:1020C000002807D020222100044806F00BFB200046
:1020D00002F0DAFB70BDC046F8070020100D0020AA
:1020E00010B502F081FB002806D0054B1B787F2B32
:1020F00002D9FFF7D9FF10BDFFF7BAFFFBE7C046D3
:10210000D4270020704710B5FFF7FCFF10BD00007A
:102110000B4B10B55B785B070ED5C300094C194318
:102120002170FFF785FB02F087FE074B18802078AF
:10213000C008FFF7E8FF10BDFFF77AFBFBE7C046DA
:10214000D42700203A0D0020380D0020002010B5C3
:10215000034B1870034B1880FFF7D5FF10BDC04626
:102160003A0D0020380D002010B5094A13781900E7
:10217000814311704A070AD1994208D0054B5B7818
:102180005B0704D5C808FFF75FFBFFF7DFFF10BD53
:102190003A0D0020D427002070B504000D48437884
:1021A0005A07D20FA24214D00125220004212A404E
:1021B00092008B431343437000F06CF80220FFF74A
:1021C000D3FF054B1B781D4203D02100034801F0CB
:1021D0003BFB70BDD4270020800D00203989001002
:1021E000044B10B5587801234007C00F5840FFF743
:1021F000D3FF10BDD427002010B50120FFF7CCFF7E
:1022000010BD10B50020FFF7C7FF10BD10B50020AE
:1022100000F0A5FB10BD10B5002000F09AFBFFF701
:10222000F5FF10BD07B500F049FB00F059FB6A4609
:1022300000236846137000F06EFB0120064B1880E7
:1022400000F074FBA0236A465B0101A8938000F0B4
:102250007AFBFFF7E0FF07BDC40C002010B5FFF7C5
:10226000E1FF10BD10B500F043FB10BD10B500F04C
:102270002BFB10BD10B500F047FB10BD10B500F0F2
:1022800050FB10BD10B500F051FB10BD10B500F0B3
:1022900053FB10BD10B500F056FB10BD10B500F09B
:1022A00064FB10BDF7B502F0C7FD094D06002B8891
:1022B00083420BD06C460027278002F0BDFDA7802B
:1022C000608000980199FEF7E1FE2E80F7BDC046C0
:1022D0006A0D002010B500F0CFFA024B1860024BD7
:1022E000186010BD7C0D0020780D002070477047ED
:1022F00010B5FFF7FCFF10BD704710B5FFF7FCFFEE
:10230000FFF7F6FF10BD704710B5FFF7FCFF10BDDB
:10231000704710B5FFF7FCFFFFF7F6FF10BD012077
:102320007047000010B5054800F028FB01F0F7FAEF
:10233000FFF7DCFFFFF7E1FF10BDC0460D590010AD
:1023400010B500F0E3FD10BD70477047704710B541
:10235000FFF7FAFFFFF7F9FFFFF7F8FF10BD0000E6
:1023600010B5FFF783FF002801D1FFF777FF08487A
:10237000FFF780FF0748FFF789FF01F0C7FDFFF770
:102380007DFFFFF716FA044B1888FFF736FA10BDE9
:10239000800D0020D4270020C20C002010B502F0D0
:1023A00009FD00F055FA00F0BBFD00F0E1FCFFF77D
:1023B000D7FFFEF737FE01F0ADFD00F0C9FDFFF7D6
:1023C000A8FF10BDF0B587B0FFF7A9FF002809D11D
:1023D000FFF768FF00F09AFD02F094F8FEF732FE76
:1023E00007B0F0BD00F012FD0024284DE0B22E5DD4
:1023F00000F0DCFA092C46D001348642F5D0244B9B
:102400001B789B0701D500F0D7FAFFF799FF2E0044
:1024100000240390200000F0C9FA337802000190F4
:10242000984228D05A400023012702920093029B31
:102430003B40DBB2002B15D0039B002B12D0009B3E
:1024400004AD2B706C7002F0F7FC01232B71019B23
:1024500068803B40DBB25A1E93416B71049805992A
:10246000FEF714FE009B7F000133DBB20093062BC6
:10247000DDD1019B33700134E4B201360A2CC9D19D
:10248000FFF728FFA6E78642B9D1A1E76C0D00202F
:10249000800D002070B500F0FDF8A4230400DB01DE
:1024A00098424BD2A023DB01984200D39BE0DF2867
:1024B0001BD8CC2858D8A7280AD8A42800D976E059
:1024C00001282FD0031F9BB2A02B2BD9002429E079
:1024D0000300A83B9BB21A2BF8D85834514BE4B2F6
:1024E0006400E35A8824E4013EE08023DB01984243
:1024F0001AD28026B601B04200D384E0E72811D971
:10250000431EFF3B013EFF3E9BB2B342DED2000AB8
:10251000C0B200F051F90502E0B200F0BBF835405E
:1025200028430400201C70BDC0B200F0B3F8F023B3
:102530001B0123403C4C18430443F3E7A523DB0174
:1025400098421DD2394B98423AD8394B98420DD80F
:10255000384B98422FD80322C4B2A3081440023A41
:10256000A2405B01344C13431C43DBE703210122EF
:1025700001408A40C3065B0F5B01304C1343F3E715
:102580002F4B984207D81F202E4B20409C4221D829
:102590002D4C0002D0E72D4BC3189BB21F2B00D946
:1025A00094E7F82203025201294C1340DCE7802310
:1025B000243CDB01D8E71F230340264C1B02D3E752
:1025C0000321012201408A40C3065B0F5B01224CBC
:1025D0001343C9E700F0F0F8F823802400025B0100
:1025E0001840A401A8E71F20204000F0E5F8E3050B
:1025F0001B0F02001B02C00602D5FF2112010A4078
:10260000164C1343B0E7C004C00E00F0D5F8050225
:10261000E0B200F03FF8F82334005B011D400543B1
:102620002C437FE7468C001000A0FFFF5F520000A4
:102630003F5200001F520000008DFFFF008CFFFF83
:10264000BF5200009F520000F4A0FFFF40ADFFFF0B
:10265000F0A0FFFFF1A0FFFF008AFFFF0090FFFF47
:1026600007B50B0A01AA1180D9B20023092905D8A0
:102670001278052A02D8FEF77FFB030018000EBD72
:1026800007B501AB19800199FFF7EAFFFFF702FFD9
:102690000EBD0000030010B5E7280AD8DF280AD8CD
:1026A000312800D173E00FD8292866D02A2800D11C
:1026B00074E0180010BDE0380728FAD8FDF72AFEAC
:1026C00018F927303DF9474C392808D0822806D020
:1026D0003528EED1374A12789206EAD506E0354A17
:1026E0001178890761D152781207E2D52923E0E7F2
:1026F00030480121027814000C400A4245D140784C
:102700000142D6D02300D206D3D4E323D1E7294A0D
:1027100012785107CDD50023D206CAD4E333C8E7D7
:102720002449E2230A785007C3D4012004004978E1
:10273000023B0C400842E5D0BBE71E4A51788907AE
:10274000B7D512780023D206B3D4E733B1E7194ADC
:1027500012781107F6D4ACE71649E6230A78100779
:10276000A7D4022004004978023B0C400842A0D1C3
:102770002300D2069DD4E7239BE70E4A11788906F1
:1027800015D45278120700D493E7392391E7094A08
:102790001278520600D48CE72A238AE7054A127879
:1027A000520600D485E7312383E7E02381E7352310
:1027B0007FE7C046D427002030B5244C21784B0752
:1027C0000DD514220240043A53425A4118230340C3
:1027D000083B5D426B419A4201D00C2358400B07E5
:1027E0000DD514220240143A53425A411823034093
:1027F000183B5D426B419A4201D00C2358406478EB
:10280000E3070DD511220240013A53425A411823E1
:102810000340083B5D426B419A4201D00923584076
:10282000A4070DD511220240113A53425A411823F0
:102830000340183B5C4263419A4201D0092358404F
:10284000C90601D51823984330BDC046D4270020BF
:102850000022014B1A607047D827002010B50400F1
:1028600000F054FB002804D102F0A8FA014B241A0E
:102870001C6010BDD827002010B500F047FB0028D1
:1028800002D002F09BFA10BD02F098FA014B1B68CF
:102890001818F8E7D8270020074B10B5C3180124F3
:1028A0001F2B06D84C79002C03D11F231840FEF7AC
:1028B000D9FA200010BDC04620ADFFFF10B50020A2
:1028C00001F031F810BD000010B5002000F0D3FF7A
:1028D000024BC01843425841C0B210BD1D01FFFF5A
:1028E00010B50020014901F002F810BDE3FE000020
:1028F00010B5002001F017F80020024900F0F7FFA2
:1029000010BDC046FFFF000010B50400022000F01B
:10291000A6FF207010BD10B50178022000F0DBFF8B
:1029200010BD10B5032000F09AFF10BD10B5C1B264
:10293000032000F0D0FF10BD10B50400042000F00B
:102940009AFF208010BD10B50188042000F0CFFF51
:1029500010BD10B501000F2000F0D5FF10BD10B55F
:102960000100132000F0CFFF10BD10B501000E20B4
:1029700000F0B1FF10BD002070470000014B18604F
:102980007047C0460008002010B5024B1B689847EE
:1029900010BDC04600080020704710B5FFF7FCFFCF
:1029A00010BD704710B5FFF7FCFF10BD014B185C60
:1029B0007047C046E727002010B50D4800F044FFDF
:1029C000002421000B4800F03FFF0B4800F03CFFC3
:1029D0000A4B185DFEF705FB0100094800F034FFC3
:1029E0000134084800F030FF0A2CEAD110BDC0467F
:1029F0004E8900105D89001062890010E7270020D1
:102A000065890010D18A001010B51E2003F074FCF7
:102A100010BD000010B5052005F0FAFB5B4B04006B
:102A2000984200D8B1E05A4905F06EFE594A0300B9
:102A3000944200D898E0C008C20001389B1A0F28C1
:102A400000D991E0FDF77AFC8800800078007000E2
:102A50006800600058005000480040003800300016
:102A60002800200018001000C046C046C046C046DE
:102A7000C046C046C046C046C046C046C046C04626
:102A8000C046C046C046C046C046C046C046C04616
:102A9000C046C046C046C046C046C046C046C04606
:102AA000C046C046C046C046C046C046C046C046F6
:102AB000C046C046C046C046C046C046C046C046E6
:102AC000C046C046C046C046C046C046C046C046D6
:102AD000C046C046C046C046C046C046C046C046C6
:102AE000C046C046C046C046C046C046C046C046B6
:102AF000C046C046C046C046C046C046C046C046A6
:102B0000C046C046C046C046C046C046C046C04695
:102B1000C046C046C046C046C046C046C046C04685
:102B2000C046C046C046C046C046C046C046C04675
:102B3000C046C046C046C046C046C046C046C04665
:102B4000C046C046C046C046C046C046C046C04655
:102B5000C046C046C046C046C046C046C046C04645
:102B6000C046C046C046C046581E07280DD8FDF7CF
:102B7000DBFB0B0A090807060504C046C046C04631
:102B8000C046C046C046C046C04610BDFF083D0016
:102B900000093D00FF50250210B5FFF735FF10BDBD
:102BA000704710B5FFF7FCFF10BD0000F7B500F04F
:102BB000ADF91E4B1E4E1D780400AD1900282CD017
:102BC00005220021684605F085FD2800694600F0D1
:102BD000D1F9184D071E0FD0174B052218786946FA
:102BE000801905F069FD01232B7000280DD1002408
:102BF000FFF7D8FE2000FEBD2B788342F7D00100FE
:102C00000522684605F066FD2F700B4B05221878EB
:102C10006946301805F066FDEAE7074B2900187889
:102C2000801900F02DFAFFF7BCFFE3E7F127002041
:102C3000E7270020810D0020DC27002010B572B6A8
:102C4000D023BE211B0649005A58002AFCD0BFF3EE
:102C50005F8F01228240084C9A62C200121905243B
:102C60005460064A800080184A224260BFF35F8F9A
:102C70005B5062B610BDC0460040014000C001403C
:102C800070B50A4C0A4D2068431C01D0FFF7D6FFEF
:102C90000434AC42F7D1074C074D2068431C01D0E7
:102CA000FFF7CCFF0434AC42F7D170BD1C08002004
:102CB00030080020040800201C080020F7B5284B2D
:102CC0000D000093009A8B009B5801905A1C46D02F
:102CD00072B6D022BE201206400011580029FCD046
:102CE000BFF35F8F01261F4FD9009E40C9190527EA
:102CF00056624F601C499B005B18402159609661E9
:102D0000BFF35F8F125062B6FFF784FE01220621E7
:102D100000249446154806680023771C07D0D0236A
:102D20001B065B68F34066463340013B13400139A4
:102D30001C43C9B2E4B2520004300029EBD1009A1E
:102D4000AB00D058431C01D0FFF778FF21004B1E89
:102D500099412800C9B2FFF71FFF019B5C55F7BDE1
:102D60001C0800200040014000C001400408002071
:102D7000F0B51E488DB00378002B17D11C4B01AA6B
:102D800011001C00E0CCE0C160CC60C119491433D3
:102D9000E0CAE0C130CA30C1110070CB70C270CB44
:102DA00070C2154B70C970C334C934C3037805228F
:102DB00059424B4105215B421A40104B1A70104B8F
:102DC0008A1A1A70FFF75CFF0A2200210D4805F0ED
:102DD00081FC0A2200210C4805F07CFC052000F053
:102DE0004BF8FFF7DAFD0DB0F0BDC046300800200B
:102DF000788700101C08002004080020F12700201C
:102E0000DC270020E7270020DD27002030B585B033
:102E10000A22002101A805F05DFC002421000134F4
:102E200001A8E4B2FFF74AFF052CF7D10A220F48A8
:102E300001A905F041FC05006B1E9D41EDB2002883
:102E400004D00A22094801A905F04CFC084B0522D0
:102E50001978084B0548C9182B0000F00FF804003A
:102E6000FFF7A4FE2043C0B205B030BDDD2700202F
:102E7000F1270020E727002070470000F7B5070082
:102E80001C1E134D0091019207D001232B7001F0FD
:102E900095FF104B18600020FEBD2E789E42FAD0A0
:102EA0000C4B186801F029FF0428F4D93900019A65
:102EB000009805F001FC002805D03900019A00981F
:102EC00005F010FC3400002320002B70E4E7C0461E
:102ED000880D0020840D002070B5C82403F07AF915
:102EE000051E08D1013C0548A4B203F054FDAC42D4
:102EF000F4D103F05FF9280070BDC0461027000030
:102F0000014B58787047C0468C0D0020014B187853
:102F10007047C0468C0D002010B5FFF7F7FF10BDBD
:102F200010B5FFF7D9FF084C2070FFF7F5FF607070
:102F3000FFF7E6FF054B1870FFF7E8FF002801D008
:102F400000F05CF810BDC0468C0D00203008002059
:102F500010B5FFF7DBFF002801D100F053F810BDDA
:102F600009220020024B1B789A4240417047C0461C
:102F70008E0D0020F8B51C4C060025780F00092D99
:102F800014D83900300000F077F800281FD12378DA
:102F9000FF2B15D101F050FF144B1880144B1B78F8
:102FA000DB070BD5134800F04FFC07E00F4B1888E8
:102FB00001F09CFEFA235B009842E2D20020F8BDAB
:102FC0000133DBB22370092BE4D80120F7E7092D88
:102FD00006D9074B1B78DB0702D5074800F034FC05
:102FE00000232370F1E7C0468E0D00208A0D0020DB
:102FF000800D00206A890010A089001010B501F032
:10300000C1FF10BD10B501F0ABFF10BDF8B51E003B
:1030100006AB05001C88002A0ED00C2007006F4369
:10302000134BFF5C974200D23A0068431B18588844
:10303000104BC01805F056FB280001F0A7FF071E33
:1030400013D0002C11D00C210A006A43084B9A18A7
:1030500010792200A04200D2020069435B18D9888F
:10306000044B3000C91805F03DFB3800F8BDC046E0
:1030700034080020900D002010B500F0A7F810BD16
:1030800010B500F0BBF810BDF0B585B0009001910F
:1030900002920393FFF764FF0126002800D009364F
:1030A000012501990098039B9847041E13D101350F
:1030B000AE4208DB2F006F430A20013403F01CF9F5
:1030C000BC42F9D1EDE7054B1B78DB0703D504487B
:1030D000029900F0B9FB200005B0F0BD800D002082
:1030E000B389001030B50D4D85B0286801F005FE9C
:1030F000012463280FD9FFF7BFFB002302300390A0
:1031000004220220009303A9FFF780FF041E02D0CF
:1031100001F054FE2860200005B030BDAC0D002049
:10312000F0B50F25264B89B01C6802AB0022ED18C4
:1031300001230291009311002B001000FFF766FF9E
:103140000134061E1F4F2AD01F4B186801F0D5FD11
:1031500063281DD900220526110006AB0120009628
:10316000FFF754FF31000390200000F0D5FE2B78CC
:1031700083421BD1039B002B18D001F01FFE124B82
:1031800018600522380006A905F0ACFA01240EE00B
:103190000521200000F0C0FE2B788342DAD1052201
:1031A000210006A805F09EFA002EEAD1002405228F
:1031B0003900029805F096FA200009B0F0BDC0462B
:1031C0007C8C0010A00D0020A80D002070B5074BCE
:1031D000074A04000D00FFF757FF002805D029001B
:1031E0002000044B044AFFF74FFF70BD213100104F
:1031F000C9890010E5300010D689001070B50E00A6
:1032000004F020FF0D4B05221C683100601C05F006
:1032100069FA0521601C00F07FFE207004F01AFF9F
:1032200004F010FF064BA0681A68904202D01860A4
:10323000FFF714FB04F00EFF70BDC0467C8C00103D
:103240009C0D002010B5FFF7BDF810BD10B501F0C2
:103250006EFD02F086FBFFF765F802F087FBFFF7D3
:103260009DF802F097FB02F09DFBFFF7EBFF02F0E9
:10327000C1FB02F05DFBFFF76AF8F4E70300DA68D0
:103280000800511C10B5D96019698A4204D21C6823
:10329000002C02D05968A04710BD9B689854FBE7EA
:1032A000F0B51400C26885B0029202221F000A9B8A
:1032B00005001A40039101929B0708D1260004E003
:1032C00020212800FFF7DAFF0136BE42F8D3002C98
:1032D00004D1019BA3420CD105B0F0BD039B013C7E
:1032E0002800195DFFF7CAFFF1E720212800FFF74A
:1032F000C5FFEB68029A9B1ABB42F6D3ECE70000CD
:10330000F0B58FB01D00169C05900392002921D1C5
:1033100023051BD4302304AA1372203B9C430131A4
:103320000A00A30740D4012315982340002839D070
:10333000002B39D0039B002B02D10C331C4202D04E
:10334000159B013B15930A00302325E0102DE7D192
:10335000AC43E5E76123A20600D541230E00002718
:103360000A3B04932900300005F0D6F9049B8446FB
:10337000CB18092901D80B00303304AA0832791C74
:10338000D355B542CCD866462029C9D00F00E9E70D
:1033900004A80830835401321598904204D9202A99
:1033A000F6D101E08342CED1302303E004A80830F7
:1033B000835401321498904201D9202AF6D1082D65
:1033C00003D1914201D210239C432B4B1C4238D095
:1033D000230522D4002A20D0149B934202D0159BAF
:1033E00093421AD1914202D2013A002A15D0234BBE
:1033F000EB40DB071ED591423AD2013A102D12D193
:10340000A30629D4202A10D12022159B05980094C8
:1034100006A9FFF745FF0FB0F0BD102DF0D0022D2B
:1034200008D1202AF0D0622300E0782304A90831D3
:103430008B540132202AE7D0302304A908318B5461
:103440000132202AE0D0039B002B09D02D2304A9B0
:1034500008318B540132D8E75823202AE6D1D3E72C
:10346000630701D52B23F2E72307CED52023EEE710
:10347000102DD6D1C4E7C046102000000400010082
:1034800010B5FFF781FA10BDF0B5070014008BB03E
:103490000591059B1978002911D13B688B420BD10E
:1034A0003A698A4208D0B968994205D0FB689A42C5
:1034B00000D8531E0022CA54F8680BB0F0BD059B1B
:1034C00000200133059325290AD03800FFF7D6FEE6
:1034D000DFE72D2B1CD0302B22D12F3B1843059238
:1034E000059B059A1B7801322B2B13D0F1D8202B8A
:1034F00012D0232B12D0002104912A2B1DD108CCED
:103500008B4202DA023108435B420493059214E0D5
:103510000223E3E70423E1E70823DFE71023DDE7E5
:103520001D000021303D04910A31092DE3D8059B8F
:103530001A781300303B092B10D9059B00251A7807
:103540002E2A1DD1802212011043059A0133527890
:1035500011003039092930D80A210CE0059B0133CC
:103560000593049B4B43303BD3180493DFE74D4353
:10357000303D013355191A781600303E092EF6D920
:103580001A78591C6C2A28D020D8682A2DD06A2A8B
:1035900034D0197801330593782996D8632930D827
:1035A00062297BD0632900D1A4E025298DD0582938
:1035B0008BD120231843103B53E02A2AE0D120CCA2
:1035C000EB43DB171D40059B0233D9E7742A01D07A
:1035D0007A2ADED180239B000BE05A786C2AF9D13D
:1035E000C022D20010430233D3E75A78682A03D0AE
:1035F000802318430B00CCE7C022F3E78023DB00D5
:10360000F7E70B000126643BDBB29E4032007F4BA4
:103610001A401E4213D1732900D193E0702900D0C3
:1036200053E77B4B02CC0343002900D0E5E0009335
:1036300005220A2338007749FFF732FE29E764297B
:1036400001D0692906D18023DB0118431023984358
:10365000063B06E008236F2903D0F7D9DB18782949
:10366000F4D1020501D5012290438022D20002400C
:1036700041041FD5002A00D00BE7261D82050FD577
:103680002168CC1702900498CA0F09196140019073
:1036900000953800FFF734FE3400FAE60223E0E735
:1036A000420602D500216156EBE70206E8D500226A
:1036B000A15EE6E7002A00D0EBE60C2106008E436F
:1036C000B446261D810506D56146029104990095F0
:1036D00001912168DDE72168420607D5C9B262463B
:1036E0000292049A009501920022D2E70006F6D5D4
:1036F00089B2F4E70223060001251E4018420DD1CD
:10370000350003E020213800FFF7B8FD049B0135A8
:103710009D42F7D39D1C5A1E9341ED1A2178231D1B
:103720003800C9B20693FFF7A9FD002E06D1069C0A
:10373000AFE6202138000135FFF7A0FD049BAB4226
:10374000F7D8F4E7230004CB06920793002A08D1A8
:103750000090062238003049049BFFF7A1FD079C2A
:1037600097E62B1E00D12D4B069A1400D318227811
:10377000002A01D0A34213D1069B0200E41A802341
:103780001B011A400892184202D0AC4200D92C000A
:10379000022302001A400992184212D1260006E0C4
:1037A0000134E4E720213800FFF768FD0136049B6F
:1037B000B342F7D8049A0023A24200D3131B01346A
:1037C0001C19069E03E038000136FFF757FD3178DB
:1037D000002906D0089B002BF5D0069B5B199E4262
:1037E000F1D1099B002BBAD0049BA342B7D9202169
:1037F00038000134FFF742FDF6E702930A23380050
:10380000019300950633FFF77BFD42E62108120085
:1038100001200000E8890010E1890010FFFFFF7F10
:103820007FB5074B0A00019300230293039304938F
:10383000044B010001A80593FFF726FE07B000BD69
:1038400081340010FFFFFF7F0FB407B504A901C941
:103850000191FFF7E5FF03B008BC04B0184713B5AA
:103860006B46DC1D0023010001222000237000F0C4
:103870005EF8207816BD13B56B469C1D0023010031
:1038800002222000238000F052F8208816BD002379
:1038900007B5010001A80422019300F048F801983F
:1038A0000EBD07B56B46D97101220100D81D00F08D
:1038B00045F807BD07B56B46D98002220100981D67
:1038C00000F03CF807BD07B504220191010001A8F2
:1038D00000F034F807BD70B50D000400FFF7BFFF1E
:1038E000A84203D029002000FFF7DBFF70BD70B5B0
:1038F0000D000400FFF7BFFFA84203D029002000FD
:10390000FFF7D8FF70BD70B50D000400FFF7BFFFD3
:10391000A84203D029002000FFF7D5FF70BD10B5E5
:1039200000F07AF910BD10B500F048F810BD0B009A
:1039300010B50100180000F059F810BD0B0010B5CB
:103940000100180000F0BEF810BD0000802210B584
:10395000054C00212000520104F0BCFE8022034BE4
:103960005201A35010BDC046B00D00200810000049
:1039700070B5064D064C02202B5D002B05D100F0E2
:103980001DFA002801D00120285570BDB00D00207F
:103990000410000070B5074D074C02232A5D002A71
:1039A00006D000F03CFA031E02D000232B55013351
:1039B000180070BDB00D00200410000070B5FFF7B6
:1039C000D7FF041E03D1FFF7E5FF200070BD00F014
:1039D000F7F90500FFF7BAFF012C04D1FFF7DAFF72
:1039E000431E984105402C00EFE7000070B50C0025
:1039F00080218518002349018D4205D80349091803
:103A0000200004F06FFE0123180070BDB00D0020EF
:103A100073B500F0D5F90024A04224D0FFF7A8FF29
:103A20008022124D060029002000120100F0DCF96E
:103A3000A04210D080210E4A0E4B2800490100F010
:103A400007FA00900191802004226946400100F0AD
:103A5000CBF94400E4B2012E01D1FFF79BFF802394
:103A6000054A5B01EA50200076BDC046B00D00203B
:103A700025232284E49CF2CB0810000080218022C0
:103A8000054B49015B58012010B59201934201D3C7
:103A9000FFF7BEFF10BDC046B00D002070B58024FA
:103AA000074D64010100285900F0B0F9030000201F
:103AB000834204D02B5902332B51FFF7DFFF70BD37
:103AC000B00D00208023F0B5160087B082180500E5
:103AD00001915B019A4215D84E4F3200C719390047
:103AE000019804F0E9FD012400280CD0320001996E
:103AF000380004F0F7FDFFF73BFF039000282CD1BE
:103B0000FFF748FF0024200007B0F0BD012E31D0A0
:103B1000EB072FD48023DB019D423ED2019A019B0B
:103B200050781B7800021843012823D8434258419B
:103B30001F234042984360386B0A18436B081B02EE
:103B4000C0B2184380B2FFF7A9FF0400012809D1D1
:103B5000019B023E023502330193002ED6D1FFF7BE
:103B60008DFF0400039B012BCDD1FFF713FF00282D
:103B7000C8D0C8E73F2D10D84020019B28431B78B0
:103B8000C0B21B021843FFF789FF04000128E9D1E6
:103B9000019B013E2D181B18DEE70296052E01D968
:103BA00005230293002300240722049305942B0C81
:103BB0001340029A04AFD20013430199029A3B705A
:103BC000F81C2B0A7B70BD7004F08CFD3888FFF761
:103BD00065FF04000128C5D17888FFF75FFF040066
:103BE0000128BFD186420DD0B888FFF757FF0400E7
:103BF0000128B7D1032E05D9F888FFF74FFF04003D
:103C00000128AFD1029B029AF61AED18019B9B186E
:103C1000A2E7C046B00D0020F0B587B0FFF796FED2
:103C200000F0BEF8002805D1FFF790FE0024200028
:103C300007B0F0BD8022564C00202100120100F098
:103C4000F1F8002831D08021524B534A200049011D
:103C500000F0FEF8060080200D00042204A94001B7
:103C600000F0E0F8049BB34202D1059BAB4201D0C7
:103C7000FFF76CFE494D02AB9E1D3100280000F09D
:103C8000E1F800285AD03388002B56D004AFDAB2BE
:103C9000AE1C3B809109012958D002295BD0002934
:103CA00006D080235B01E65064E0FFF74FFEBBE7E0
:103CB0000A2102AB3000C91800F0C4F80028F0D087
:103CC000E0233A78DB0211041940092302A81B18EB
:103CD00018785B782E1D1B0203435BBA9FB2D30892
:103CE000019307230F43D108194000917B188021CD
:103CF00049018B42D5D830231A4206D0300005A99D
:103D000000F0A0F80028CCD0AE1D019B5B0708D5C1
:103D10000E2102AB3000C91800F094F80028C0D082
:103D200002360B2102AB009AE019C91804F0DAFC44
:103D3000802335009B019E429DD3012080235B019F
:103D4000E550002816D0FFF799FE15E03F211B0A29
:103D50000A40A354ECE7FF21F820194080014902F2
:103D6000014080201B0A5B000B43591C400181422B
:103D700008D32650FFF74CFE041E00D057E7FFF78C
:103D8000E5FD54E79206D20FE25400236354CFE7D7
:103D9000B00D0020E49CF2CB252322840810000003
:103DA000802210B503495200034804F09BFC012017
:103DB00010BDC046000000103C1E002001207047CE
:103DC00010B5EFF3108372B68021FF20054C8901F6
:103DD0004003236004F0B0FC236883F310880120C3
:103DE00010BDC046381E002010B5EFF3108372B628
:103DF000054C2360FF235B03C01804F07DFC23689F
:103E000083F31088012010BD381E002007B56B46D3
:103E1000D9800122991DFFF7E7FF01200EBD012087
:103E20007047000010B55200054C1218091A904254
:103E300001D1012010BD035BDB430B520230F6E7DA
:103E400000E01F1010B50122FFF7ECFF012010BDAC
:103E5000F0B5471806001900100089B0B74201D824
:103E600009B0F0BD33784A01DBB243401C001B02AD
:103E7000079300230693E30E9B180193630112221C
:103E80000093200000230D0004F04EFC009A019BDB
:103E90008018594100196941EA01630E9B18039388
:103EA000E3010293029A039B801859412A02230ED0
:103EB0009B18059323020493049A059B801859418B
:103EC000069A079B013680185941C7E710B5FEF7DF
:103ED000C9F910BD10B50020FEF768FD0123184098
:103EE00010BD000010B5FEF791FF074802F053FD2A
:103EF000FEF78CFFFFF7EEFF002803D0FFF7E6FF89
:103F000000F0AEFF10BDC0463075000010B5FFF7E1
:103F1000E9FF10BD7047000002004118FF2010B5F6
:103F2000054C914200D110BD137801325840C0B207
:103F3000205CC0B2F5E7C046A4870010124A10B555
:103F400001230C00904214D1FDF7CEFF63790F4A94
:103F5000002B10D0AA2303401900481E81412920BC
:103F60001170002B00D00C3000F0AEFDFEF7B8F859
:103F70000023180010BD13782920002B00D00C302E
:103F800000F0BEFDF2E7C046167C00003C1F00209A
:103F900070B505004879002800D1CBE0664BEB18DE
:103FA000222B00D9A9E0654C2000FEF76FF9644B85
:103FB000E818212812D8FCF7B7F93DAB46191C497F
:103FC0001F4C5528A32B582E5B85315E8D37656BB2
:103FD000224F25523A687897A11541B401232278DF
:103FE00013434DE00823627813432AE0022322782A
:103FF000F6E704232278F3E708232278F0E7012389
:104000006278F1E702236278EEE710232278E7E78F
:1040100020232278E4E740232278E1E7FDF778FBCC
:10402000802322785B42DBE70C232278D8E7032346
:104030006278D9E701222378934321E0082263784C
:104040009343637053E002222378F5E70422237838
:10405000F2E708222378EFE701226378F0E70222F3
:104060006378EDE710222378E6E720222378E3E760
:1040700040222378E0E7FDF74BFB7F2223781340B3
:10408000237034E00C222378D6E703226378D7E745
:104090000122042023785907C90F8A4391008343E2
:1040A0000B430821D2008B439AE701210800637873
:1040B000DA07D20F904302228B430343410093431C
:1040C0000B43BEE7012223785906C90F8A439201A8
:1040D0004021E8E7FDF71CFB01222378D9094A407B
:1040E0007F21D2010B407BE70120FEF7D7F82000AB
:1040F000FEF7D0F8FDF70CFB002070BD0020F4E7C0
:1041000001222378D906C90F8A4312011021CAE778
:10411000012108002378DA07D20F90438B43034331
:10412000AEE7012263781907C90F8A430821D2003C
:104130008B4359E70120E0E70090FFFFD4270020E0
:10414000FF8FFFFFB523584303B2020407D5803B1E
:104150001BB2D817C0B2C018001240B270478030EE
:10416000FAE7000010B5164B1B78DA070AD5154B95
:104170001B785B007F20834203D87E38002B00D061
:10418000D8B210BD9A0703D50E4B1B789B00F1E700
:104190005B0703D50B4B1B78DB00EBE70A4B18786A
:1041A00000280BD0094B1978064B1B788842F3D2B4
:1041B0005843C00004F0D8FA83B2DBE70823DFE7F6
:1041C000441F00205D080020431F00205C080020E1
:1041D00010B5154B1A7801231A4207D0134B1B78E0
:1041E0009B080120002B0ED0D8B20CE0910703D51C
:1041F0000E4B1B785B08F4E7520705D50B4B1B7879
:104200007F208342EDD910BD094A10780028EBD0F9
:10421000084B1978054B1B788842F1D2584304F0BB
:10422000A3FA83B2ECE7C046441F002059080020DF
:10423000421F0020580800200100CD3810B5122878
:1042400010D8FCF771F80A10141A323232323232B6
:1042500032321E23282E3A404400FFF783FF1E4BC4
:104260004042D87010BDFFF77DFF1B4BF9E7FFF709
:1042700079FF194B40429870F4E7FFF773FF164B34
:10428000F9E7FFF7A5FF144B1871EBE7FFF7A0FF65
:10429000114B4042F8E7FFF79BFF0F4B404258712C
:1042A000E0E7FFF795FF0C4BF9E70123D1398B408D
:1042B000094A51780B435370D4E70123074A117818
:1042C0000B431370CEE7054A02231178F8E7034A3F
:1042D00004231178F4E7C046451F0020441F002046
:1042E000032200B5344B9A56CD2814D1002A01DAA6
:1042F0000022DA709A78D9780A4352B2002A01D1A2
:104300002E490A701A795B7913435BB2002B01D1F5
:104310002B4A137000BDCE2802D1002AE8DCE9E761
:1043200002229A56CF2804D1002AE3DA00229A709A
:10433000E0E7D02802D1002AF8DCDBE704229A5615
:10434000D92804D1002AD5DD00221A71D2E7DA2853
:1043500002D1002ACEDAF7E705229A56DB2804D1EB
:10436000002AC7DA00225A71C4E7DC2802D1002AE9
:10437000F8DCBFE7D1380E28BCD8FBF7CBFF080824
:10438000080808080808BBBBBBBB0E1418000121B5
:1043900081405A788A435A70ACE7012009490A786B
:1043A00082430A70A6E7074902200A78F8E7054920
:1043B00004200A78F4E7C046451F0020431F002070
:1043C000421F0020441F00202A4B70B51B782A4C46
:1043D0001B0739D52948FFF737FA61782848FFF7D6
:1043E00033FA2848FFF730FA022127486156FFF7D1
:1043F0002BFA2648FFF728FA032123486156FFF7D6
:1044000023FA2248FFF720FA04211F486156FFF7DC
:104410001BFA1E48FFF718FA05211B486156FFF7E3
:1044200013FA1B48FFF710FA1A4B1B481978FFF7CD
:104430000BFA1A48FFF708FA194B17481978FFF7D3
:1044400003FA1848FFF700FA00F0F6FCA378E278C8
:1044500013435BB2002B01D0134B18802379627990
:1044600013435BB2002B01D0104B1880200000F0EA
:104470003FFA70BD800D0020451F0020EE8900101E
:104480005D890010118A0010138A001063890010E2
:10449000168A0010431F0020198A00101C8A001081
:1044A000441F00201E8A0010401F00203E1F0020D5
:1044B000062210B50021054804F00CF90023044A37
:1044C0001370044A1370044A137010BD451F002076
:1044D000431F0020421F0020441F0020022282565A
:1044E00003000120002A0BD103229A56002A07D18B
:1044F00004229A56002A03D105201856431E9841DB
:104500007047000073B5554C06222100684604F040
:10451000E9F800236D46A370E37023716371AB78F3
:10452000EA7813435BB2002B0BD04D4B188800F098
:10453000DDFB4C490B78002B28D04B4A1278904277
:104540002DDC2B796A7913435BB2002B0BD0474BE0
:10455000188800F0CBFB46490B78002B49D0454A20
:10456000127890424EDC2900200000F001FB002868
:1045700004D12000FFF7B2FF002801D0FFF724FF8D
:1045800029000622200004F0ADF873BD3A4A1678DF
:104590000A2272439042D4DD01330B7001E0FF2BFD
:1045A000FAD10226AE57002E07D0FFF7DBFDFF231E
:1045B000002E00DDFE3B4343A3700326AE57002EC2
:1045C00007D0FFF7CFFDFF23002E00DDFE3B434366
:1045D000E370022020560028B3D00326A657002EF1
:1045E000AFD0FFF7AFFDA0703000FFF7ABFDE0707C
:1045F000A7E7224A16780A2272439042B3DD0133BC
:104600000B7001E0FF2BFAD10426AE57002E07D025
:10461000FFF7DEFDFF23002E00DDFE3B4343237149
:104620000526AE57002E07D0FFF7D2FDFF23002E40
:1046300000DDFE3B4343637104202056002800D177
:1046400091E70526A657002E00D18CE7FFF77AFDEB
:1046500020713000FFF776FD607184E7451F002070
:10466000401F0020431F00205E0800203E1F002046
:10467000421F00205A0800205F0800205B0800202D
:10468000F8B5140042791D0006AB1F78274B002AAD
:1046900011D01C7000F0D0FB254B18802300203374
:1046A000DBB2072B06D80723012023409840C0B275
:1046B000FCF7DAFDF8BD1E78A6422DD11C4B1888F8
:1046C00000F014FBC72827D82C002034AE4215D0A8
:1046D00033002033DBB2072B06D8072301201E400E
:1046E000B040C0B2FCF7C8FDE3B2072B06D80723E1
:1046F00001202B409840C0B2FCF7B6FD3800E4B270
:10470000FCF7AAFD072CD5D8072301201D40A8409F
:10471000C0B2FCF7B1FDCDE723002033DBB2072B9D
:10472000C8D8072301201C40A040F1E74E1F0020FD
:104730004C1F0020204B13B5C0180C00062833D89E
:10474000FBF7F2FD141A040E20262C0026230093FA
:10475000BB331A0019492000FFF792FF002016BD55
:1047600027230093BE331A001549F4E72623E022DD
:1047700000931449BB33EEE72723E4220093124948
:10478000BE33E8E72623E22200931049BB33E2E779
:104790002723E62200930E49BE33DCE72823E522D7
:1047A00000930C49273BD6E74B79002B02D000221F
:1047B000094B1A700120D2E7E883FFFF1A7C000042
:1047C0001B7C0000187C0000197C00001C7C000091
:1047D0001D7C00001E7C00004E1F0020014B186055
:1047E0007047C046541F002010B500F037FA01385A
:1047F00043425841C0B210BD10B5FEF787FB0028F8
:1048000002D1064B187810BD054B1B68181EFAD054
:104810001B68181EF7D09847F5E7C0464F1F0020C9
:10482000541F0020F8B5134B04001B68002B20D048
:104830005B68002B1DD098470F4E33785A0718D568
:10484000DB0703D521780D48FEF7FEFF0127A51CE5
:10485000083433781F4203D029780948FEF7F4FF63
:104860000135A542F5D13378DB0702D50548FEF7BF
:10487000EBFFF8BD541F0020800D0020218A00109E
:104880003A8A0010D18A0010F8B5144B04001B6856
:10489000002B22D09B68002B1FD006220270984765
:1048A0000F4E33785A0718D5DB0703D561780D48CA
:1048B000FEF7CAFF0127A51C203433781F4203D01E
:1048C00029780948FEF7C0FF0135A542F5D13378B4
:1048D000DB0702D50548FEF7B7FFF8BD541F0020DF
:1048E000800D0020408A00103A8A0010D18A001002
:1048F000054B10B51B68002B05D0DB68002B02D0E0
:1049000002220270984710BD541F00200A4B07B5C1
:104910001A8882420FD01880084B1B68002B0AD0DF
:104920001B69002B07D0694603224871000A887171
:104930000A7101A8984707BD521F0020541F00208C
:104940000A4B07B51A8882420FD01880084B1B68A3
:10495000002B0AD01B69002B07D06946042248713E
:10496000000A88710A7101A8984707BD501F0020EE
:10497000541F00200E4B10B51C68FFF735FF0028B0
:1049800003D00C4B1B787F2B0CD80622A31C0020D5
:104990009A181978002901D00130C0B2013393422E
:1049A000F7D110BD044B1E221B680233EFE7C0464F
:1049B000FC070020D4270020F807002010B5041EB3
:1049C00001D1002010BDFFF70FFF00280AD1104BC6
:1049D0001B689A1C08331178A14217D001329A4201
:1049E000F9D1EEE70B4B1B787F2BF0D9E208EF2CC7
:1049F000E7D8094B01201B689B189A7807232340AE
:104A000098401040431E9841C0B2DBE70120D9E72F
:104A1000FC070020D4270020F807002001220023F3
:104A200070B55242851CEC5C8C420BD0561C02D1F6
:104A3000002C00D15AB20133062BF4D1531C01D003
:104A40008018817070BD002210B5831C08301C785E
:104A50008C4200D11A7001338342F8D110BD00009E
:104A600010B5CB08EF2908D8C01807231940063B1A
:104A70008B4082781343837010BD044B1B78DB0797
:104A8000FAD50348FEF7E0FEF6E7C046800D0020A9
:104A9000558A001010B5CB08EF2908D8C018072395
:104AA000012219408A4083789343837010BD044BE0
:104AB0001B78DB07FAD50348FEF7C6FEF6E7C046CB
:104AC000800D0020738A001010B50400FFF78CFEE3
:104AD000002809D0074B1B787F2B05D9064B2100F6
:104AE0001868FFF7BDFF10BD044B21001868FFF7E1
:104AF00095FFF8E7D4270020F8070020FC070020E6
:104B000010B50400FFF770FE002809D0074B1B7892
:104B10007F2B05D9064B21001868FFF7BBFF10BD9E
:104B2000044B21001868FFF78EFFF8E7D427002018
:104B3000F8070020FC07002010B5FFF755FE0028FD
:104B40000BD0084B1B787F2B07D91E22064B186809
:104B50000230002103F0BEFD10BD044B0622186890
:104B60000230F6E7D4270020F8070020FC070020D9
:104B700010B54A78447803000120944223D10222E0
:104B80009A56002A03D002240C5794421BD10322C8
:104B90009A56002A04D003240C570120944212D1C3
:104BA00005229A56002A04D005240C57012094426D
:104BB00009D100201B795BB2834204D0042008563F
:104BC000C01A431E984110BD82B002B0704707B5AD
:104BD000FFF7FAFF07BD000007B505490130C870AF
:104BE000042201A803F07EFD0198FFF7F0FF07BD46
:104BF00060080020032307B50449042201A8CB70F4
:104C000003F070FD0198FFF7E2FF07BD6008002088
:104C100010B5FFF7E1FF10BD012307B504490422D9
:104C200001A8CB7003F05EFD0198FFF7D0FF07BD30
:104C30006008002010B5FFF7EFFF10BD07B5431E59
:104C4000984105490422887001A803F04BFD0198A2
:104C5000FFF7BDFF07BDC04660080020014B9878F4
:104C60007047C0466008002007B505490422487017
:104C700001A803F037FD0198FFF7A9FF07BDC04663
:104C800060080020014B58787047C046600800203B
:104C900007B505490422087001A803F023FD019817
:104CA000FFF795FF07BDC0466008002070477047BA
:104CB000704710B5FFF7FCFF10BD704710B5FFF748
:104CC000FCFF10BD10B5FFF7F1FF0024FEF79EF8C2
:104CD000FFF7EDFF2000FDF769FE002804D1013445
:104CE000E4B20A2CF6D110BD0120FCE710B5040097
:104CF00000F0A2F8001B80B210BD10B5040000F057
:104D00005DF8001B10BD30B5050085B010220021F4
:104D1000684603F0DFFC684603F038FC6C462B0065
:104D200007CC07C3280022681A6005B030BD10B553
:104D300001F0C2FF01F07CFA10BD000010B5FCF7D5
:104D400040F9024801F027FE10BDC046684200004D
:104D500010B5FDF7DFF8FDF7F3F8FFF7EDFEFFF70D
:104D6000A7FB0020FFF7D2FD0020FFF7E9FDFCF7CD
:104D700030F910BD70B572B6D024BE2524066D0082
:104D80006359002BFCD0BFF35F8F01F0ADFF002211
:104D9000054B1860054B1A60054B1A60BFF35F8F17
:104DA000645162B670BDC046601F00205C1F0020C9
:104DB000581F002010B5FFF7DDFF10BDF8B501F05A
:104DC0006DFA050001F090FF134E144A3368C41ABF
:104DD00013480168A14208D9124F1168E419124F13
:104DE000DB193360114BC918116004602800166884
:104DF00001F06DFAFA22002320009200002103F056
:104E000093FC00230A4A801859410023094A03F001
:104E1000A3FC3018F8BDC046601F0020581F0020BA
:104E20005C1F002080C20E00803DF1FF70854100B4
:104E30003F420F0040420F0010B5FFF7BFFF80B2A6
:104E400010BD0000BFF34F8F034B044ADA60BFF37D
:104E50004F8FC046FDE7C04600ED00E00400FA05B4
:104E600010B5034803F016FC002103000800984722
:104E70005542000070B503F061F90A4D0A4B2A68EB
:104E800000249A4205D009482B6001F035FA2C60C5
:104E900070BD07482C6003F0FDFB210003002000DB
:104EA0009847C04614290020BAB0FECA400D03003E
:104EB00055420000F7B50C266B46DC1D002301218E
:104EC0002000237000F006FA002810D02378022B6F
:104ED0000DD803F0B7F80323257801216B4020009B
:104EE000237000F099F9002804D103F0B3F800F022
:104EF00071F9E1E733006B43174C195D002908D0C5
:104F0000164AE3185B881068C01800F0DBF9002827
:104F1000EBD033006B43E2189768002F08D0E05CB9
:104F20000E4B1968D3885288CB1889180200B847ED
:104F3000754364192179002902D103F08BF8BBE78E
:104F4000064BE2881868801800F066F9040003F048
:104F500081F8002CB0D1CAE7340800207C8C001006
:104F600007B500F0BDF9002296210092034B0448DA
:104F7000FF32C90001F0D2FC07BDC046B54E00109B
:104F8000681F002010B500F0B9FA10BDF7B5040095
:104F900000F020F96B46E0B29F1D00243870022813
:104FA0000BD803F04FF8012138003E7800F034F9B7
:104FB000A04204D1002403F04DF82000FEBD6B4652
:104FC000DD1DFF23012128002B7000F07BF9041E5A
:104FD000F0D003233A7853402A78DBB29A42E9D1E1
:104FE0000C2373430D4D595D00290DD10C237343E0
:104FF000ED1829790029DED0094BEA881868801855
:1050000000F060F90400D6E7054AEB185B881068E9
:10501000C01800F001F90028E8D1CBE734080020DF
:105020007C8C001072B6D021BE22090652008B582B
:10503000002BFCD0BFF35F8F7047BFF35F8FD0238F
:10504000BE221B0652009B5062B6704770B504002A
:10505000081C0E1CFBF79EF985B2002085420DD07E
:105060002800FBF729FD011C301CFBF785FB87217D
:10507000C905FBF787FAFBF78DF9C0B22D040002D2
:105080002843206070BD0000F0B5002485B0029078
:1050900000910392009B9C4204D3E01A4342584182
:1050A000C0B237E0FFF7BEFF1D4F01213D681D4E26
:1050B0002A000832914073680191194214D1FFF718
:1050C000BCFFFFF7AFFF184BAD00ED18029B7268F5
:1050D000019902930A421FD1009A94421CD02A7867
:1050E00001341A700133F2E7FF2301221D40AA4068
:1050F0000E4B0F4803991A6001F058FC0028D3DAD0
:10510000FF223B681340FE3A9A400A4B1A60FFF7B1
:1051100094FF002005B0F0BDFFF78FFFBAE7C0464F
:105120006808002000002050230020502C2120502F
:105130001C2400202C3120501F4B70B59D6B1F4B41
:1051400074461A680123190091400D420BD0D2B267
:1051500093401B4A1360FFF765FF0021194801F0D7
:1051600036FCFFF76AFF1022174B1B689A40154266
:105170000ED001220433DBB29A401300104A1360B0
:10518000FFF750FF0021114801F021FCFFF755FF08
:1051900001220F4B196B114209D01A63FFF742FF2E
:1051A00003210848494201F012FCFFF746FF2000A6
:1051B00001F028FD70BDC046FC00205068080020AA
:1051C0002C3120501C2400206408002018240020CA
:1051D0000000205010B5FFF725FF0C4B01211A6885
:1051E0000B4C13000833994018235343094A9B186A
:1051F000802252011343802212066068014202D0CD
:10520000FFF71BFF10BD1A601A60F6E76808002060
:1052100000002050D0002050F0B50400002585B0DB
:105220000291029BAB4204D8581B43425841C0B282
:1052300032E0FFF7F7FE01211C4F1D4E3B68019342
:10524000019A736810329140039119420DD1FFF712
:10525000F4FEFFF7E7FE019B04339B00726803999D
:105260000A421BD0FFF7E9FEDBE70122019B114850
:105270000433DBB29A40104B10491A6001F096FBE0
:105280000028D8DA01223B780433DBB29A400C4B79
:105290001A60FFF7D2FE002005B0F0BD227801357C
:1052A000F250029A0134AA42D8D1DBE76408002008
:1052B00000002050182400202C212050204E0000F7
:1052C0002C31205010B5024AFFF7DEFE10BDC0465B
:1052D000204E0000012210B55242FFF7D5FE10BD4E
:1052E000F0B5734B73491A688DB00A401A6080227A
:1052F000D20099681142FCD06F4D0121280003F0C3
:1053000043F86E4F3860002806DA6D4B6D481B7805
:10531000DB0765D40DB0F0BD6B492800802403F095
:105320004DF801266401230022003968039028000B
:1053300003F062F8009633000C222800396803F06D
:1053400099F8D02306221B065C62604B08A95A66B6
:1053500053235F4A04A8536300230B9380235B020B
:105360000893F8235B020993C02310221B030A93BE
:1053700003F0B8F9039B039A0333D2011B031343D1
:10538000544A052013408022D20513430593524B03
:105390000793524B069302F03BFFFBF78DFB5049FE
:1053A000FBF710F8011C04A8FFF750FE2800039A31
:1053B000396804AB03F0A4F831003B682A689940CF
:1053C0000B001343310028002B6002F0DDFF454C39
:1053D0002060002807DA3A4B1B781E429AD04248D8
:1053E000FEF732FA96E72800404902F0E7FF002373
:1053F00000932168330003900D22280003F03AF84F
:105400008023D02206219B01120693624A232F4A51
:1054100004A8D1662E4A08A9936300230B93802326
:105420005B020893F8235B020993C02310221B033D
:105430000A9303F057F9D023DB020793039B039AE7
:105440000833D2011B031343294A05201340D022FD
:10545000120513430593274B069302F0D9FEFBF781
:105460002BFB1F49FAF7AEFF011C04A8FFF7EEFD66
:105470002800039A216804AB03F042F83200236845
:1054800029689A400A432A603200DBB29A4013002E
:10549000194A002113603B7807200433DBB29E4099
:1054A00080235B001660136002F0D8F832E7C04634
:1054B00000C00040FFFBFFFF0000205064080020F8
:1054C000800D0020918A0010988C0010004001404F
:1054D00000C00140FFFFFF9F0C30104000000C4057
:1054E0000000E14968080020D38A0010808C001079
:1054F000FFFFFFE000000C802C21205010B5FFF7CB
:10550000EFFE10BD72B6D021BE22090652008B58A4
:10551000002BFCD0BFF35F8F7047000001007F229B
:10552000D4310B7870B51A400500212A4CD15AB2FB
:10553000002A20DA4A78022A1AD0032A04D0012A43
:1055400019D100F0A3FC70BD4C790A7924021443F0
:1055500011D1FFF783FB2A00314BC832187013605A
:1055600001232A00D035CC3213602C600120EAE7F9
:1055700000F0C4FDE7E74A780A2A1ED00B2A0ED0B5
:10558000092A21D14A79087912020243012A1BD83B
:105590002B00244AC8331A60234C0223E1E74B79DD
:1055A0000A791B02134302D18878FFF747FB2A00D0
:1055B0000023C8321C001360D3E7C878FFF768FBEC
:1055C000280000F0CBFDBEE7602200249343812B2E
:1055D00016D14B78062B13D14B790A7968681B02D8
:1055E000466813432800CA788978B047A04201D1A1
:1055F0000020A8E72B004268C8331A600368B0E7B0
:1056000094236343094AD358002B03D10134032C5C
:10561000F6D1EDE7280098470028F7D0A6E7C04666
:10562000282400202C2400206D5600100C09002096
:10563000002370B50B4CD4306360C27981791202BB
:105640000A4341790579090229438578C078064BD8
:105650000002284300F002FA20606068002800D0B1
:10566000200070BD2024002024240020030010B559
:10567000D4339979DB79074A1B0210780B43022B4C
:1056800004D1012801D0062802D15078FFF7ECFAA6
:1056900010BDC0462C24002010B50F24054A1178F7
:1056A0004B1C2340044C24789C4202D0034C1370C2
:1056B000605410BD0228002003280020F22700209B
:1056C000080010B5052937D8FAF72EFE2136032138
:1056D0002137FFF717FF234800F080FA224800F037
:1056E0007DFA224800F07AFABFF35F8FD023BE2202
:1056F0001B0652009B5062B61D4B1B78002B02D03C
:105700000520FFF7C9FF0220FFF7C6FF14E0FFF7EF
:10571000C3FFFFF7F7FE134800F04AFA124800F003
:1057200047FA124800F044FABFF35F8FD023BE223D
:105730001B0652009B5062B610BDFFF7E3FE0948FE
:1057400000F049FA084800F046FA084800F043FA29
:10575000BFF35F8FD023BE221B0652009B5062B660
:105760000520D1E78408002018090020AC0900209A
:105770002E240020102210B50021044802F0AAFFB8
:105780000022034B1A70034B1A7010BDF227002041
:105790000228002003280020F8B50F25012400214D
:1057A000234B244A1E781378B34233D1002900D00A
:1057B0001370F8BD1370204B1C70204B1978080033
:1057C000431E9841C0B2FFF715FAE8E713700022B4
:1057D000194B1A70FFF7BCFA184B19780800431ED2
:1057E0009841C0B2FFF714FAD9E71370134B197838
:1057F0000800431E9841C0B2FFF7EEF9CFE7002141
:1058000013700800F8E71370FFF706FA2000FFF79F
:1058100015FAC4E718000A4F0133385C21002B4009
:105820000528C1D8FAF776FDEFC0E1EBC6D2C04635
:1058300002280020032800202E2400200F29002009
:10584000F2270020F8B50600002494273D006543A8
:105850000E4B0134ED18280000F082F9280000F00A
:1058600095F9032CF2D18025094B0A4C6D02E550C5
:10587000300001F0B1FB084801F08DF83000074915
:1058800001F095FB064BE550F8BDC04684080020AA
:105890004C3000000000115050C30000A88C0010D4
:1058A0004C2000009423434307B5044818180023F4
:1058B0000093034B00F0F4F90EBDC04684080020AD
:1058C000A086010010B50400FFF7C8F908222100E6
:1058D000002803D10130FFF7E5FF10BD0120FAE7F2
:1058E00010B5010020220020FFF7DCFF10BD10B52D
:1058F000010006220020FFF7D5FF10BD10B5010002
:1059000003220020FFF7CEFF10BD00001FB50F21BE
:10591000012269440870044B0092044800F0C0F969
:1059200040B205B000BDC046A0860100AC09002011
:1059300010B50121014800F0FAF910BDAC090020B2
:1059400070477047704710B5FFF7FAFF02F076FB1B
:10595000FFF7F7FF10BD10B502F071FBFFF7F2FF84
:1059600010BD10B5FFF766F910BD000010B5FFF7C8
:1059700001FF0548FFF766FF044801F00CF80448F2
:10598000FDF762FF10BDC0463028002050C3000064
:10599000128B001010B50248FEF720FF10BDC04664
:1059A0006C08002070B5FFF7F7FE0F4C2378052B2D
:1059B0000AD10E4B1B78DB0702D50D48FDF744FFDB
:1059C00002252378052B00D070BDFFF7B7F9FFF74C
:1059D00079F90028F5D02300DC331B881D42F0D074
:1059E000200001F08DFBECE730280020800D002026
:1059F000238B001010B500F005FB10BDF0B5144B63
:105A000085B01D78002D20D101226C460F266846F6
:105A10001A70FFF778F92B000E490F4D5A10A05C51
:105A20005A000709EF5D8A18977000273040D77039
:105A30005A1C285C52008A1802339070D770202BB1
:105A4000ECD122330B703F3B4B7005B0F0BDC0462C
:105A50002F24002030240020D48C001070B51C00AE
:105A6000050A032D19D00AD8012D31D000231A00C0
:105A7000022D01D1194A54331800226070BD002351
:105A80001A00212D1DD0222DF6D10229F4D8144B55
:105A90008A00D258134B5B5CEEE70023C0B21A00B9
:105AA000A842E9D8FAF740FC170205081C230E4A61
:105AB000E2E70E230D4ADFE7FFF7A0FF0C4A137859
:105AC000DAE70229D8D80B4B8900CA580923D3E753
:105AD0001223094AD0E70423084ACDE7178D0010A6
