:020000041000EA
:1000000000B5324B212058609868022188439860DF
:10001000D860186158612E4B002199600421596104
:100020000121F02299502B49196001219960352056
:1000300000F044F80222904214D00621196600F024
:1000400034F8196E01211966002018661A6600F04E
:100050002CF8196E196E196E052000F02FF8012189
:100060000842F9D1002199601B49196000215960AB
:100070001A491B48016001219960EB211966A021F2
:10008000196600F012F800219960164914480160C1
:100090000121996001BC002800D000471248134993
:1000A000086003C880F30888084703B5996A0420EC
:1000B0000142FBD001200142F8D103BD02B5186610
:1000C0001866FFF7F2FF186E186E02BD00000240BE
:1000D000000000180000070000035F00212200005C
:1000E000F4000018222000A00001001008ED00E03C
:1000F000000000000000000000000000070B8FD58A
:1001000000040420C50200106DA70010C7020010F3
:10011000C7020010C7020010C7020010C70200107B
:10012000C7020010C7020010C7020010C70200106B
:10013000C7020010C7020010C7020010C70200105B
:1001400091B40010C9B4001001B5001029B5001019
:10015000C702001069B70010C7020010058C00101C
:10016000C7020010C7020010C7020010C70200102B
:10017000C7020010C7020010C702001025A8001017
:1001800045A80010C7020010C7020010C7020010E7
:10019000C7020010C7020010C7020010C7020010FB
:1001A000C7020010C7020010C7020010C7020010EB
:1001B000C7020010C7020010C7020010C7020010DB
:1001C00072B62C4880F308882B4880F309880220F7
:1001D00080F31488BFF36F8F28482949086009F01D
:1001E000F1FD09F034F927482749224A914202DA01
:1001F00008600431FAE725491F4A914202DA086093
:100200000431FAE72249234A234B14469A4204DA7E
:100210000868106004310432F8E719490C601F497E
:100220001F4A204B9A4204DA0868106004310432F5
:10023000F8E700201C491D4A914202DA08600431A7
:10024000FAE709F0C1FD08F07BFB194C194DAC42EF
:1002500003DA216888470434F9E703F063FD164C9C
:10026000164DAC4203DA216888470434F9E7144993
:100270000847000000040420000C042000010010C6
:1002800008ED00E0555555550000042000040420F9
:100290000001001000010010C001001024D1001066
:1002A00000000020740D0020780D002094360020FE
:1002B000C0010010C0010010C0010010C0010010FA
:1002C000C79D00107CE700F000F8FEE7F0B544465B
:1002D0004D4656465F46F0B46B46CB60C3689D46BC
:1002E000F0BCA046A946B246BB46F0BD0AF0BDFA36
:1002F00062B6281CA04700200AF033F9FEE70AF096
:100300002DF8024A024B1360FEE7C04604ED00E000
:100310000000008002B471464908490009564900AE
:100320008E4402BC7047C04602B471464908490079
:10033000095C49008E4402BC7047C04603B4714654
:10034000490840004900095A49008E4403BC7047DF
:100350007047C046414208401C2101231B049842BB
:1003600001D3000C10391B0A984201D3000A083946
:100370001B09984201D30009043902A2105C401AFB
:100380007047C0461B1C1D1D1E1E1E1E1F1F1F1F4B
:100390001F1F1F1F9E2110B5C905041C00F0F8FB8C
:1003A00000280AD09E21201CC90500F0E5F900F0C4
:1003B00065FB80231B06C01810BD201C00F05EFBEF
:1003C000FAE70000F0B5C30F85B044024500039181
:1003D000640A2D0E01932DD0FF2D38D08023E40028
:1003E000DB047F3D1C4302950027039B5D025E00FA
:1003F000DB0F6D0A360E03932FD0FF2E3AD08023E9
:10040000ED00DB041D4333007F3B0022039801997C
:1004100041400298C31AB800104301380E2842D850
:10042000FFF782FF6CA77EA79CA77E6C6C9C7E2E3C
:100430002E2E720001270294AC42D6D0200000F08C
:10044000B1FB773F431F9C403B1A0293CCE7032745
:100450000295002CC9D1013FC7E72B000122B5420C
:10046000D4D0280000F09EFB431F9D4076235B42C2
:100470001B1ACAE733000322002DC7D1013AC5E792
:100480003A000199022A39D0032A00D16FE00025F1
:100490002800012A1ED16D026D0AC0052843C90734
:1004A000084305B0F0BD64016D01AC4228D31A20A9
:1004B0000122641B0126270052006400002F01DB8B
:1004C000A54201D8641B324301380028F3D1601ED5
:1004D0008441144318007F30002824DD620704D0D3
:1004E0000F222240042A00D00434220103D5803395
:1004F0001800234A1440E508FE28CCDD00250DE055
:100500001B200022013BD5E78023DB031C4201D0E6
:100510001D4228D080250199ED032543FF20BAE72D
:100520002C000399AEE702001A3222DB9E3301222F
:1005300025009C40121AD540631E9C4125436B0741
:1005400004D00F232B40042B00D004358023280037
:10055000DB0418401D420FD1ED089CE700238024E6
:100560000193E403D6E7039B2C000193D2E70191AA
:10057000D0E7002528008EE7002501208BE7C04644
:10058000FFFFFFF7F0B5C30F85B0470244000391AA
:100590007F0A240E02930AD0FF2C72D080227F3C67
:1005A00026000023FF00D204174301930DE001232E
:1005B0003E000193A74208D0380000F0F3FA7626F7
:1005C000431F9F407642361A0194039B5C025D00F4
:1005D000DB0F640A2D0E03935AD0FF2D64D08023C5
:1005E0002800E400DB041C437F38002301998619AE
:1005F0008800721C18430A2800DD7EE00299039DE2
:1006000069400291022855DC0138012864D9B9B249
:100610000D003B0C200CA4B2654341435C434343B3
:1006200009191F002B0C5B189C4202D9802149023A
:100630007F181904ADB24D19AC01611E8C411B0C21
:10064000AD0EDB192C439B011C431B0167D5012315
:1006500061081C400C4310007F30002861DD6307F7
:1006600004D00F232340042B00D00434230103D5EE
:10067000803210003F4B1C40E108FE2834DD002191
:100680004BE0032326000193002F9ED1013B8CE712
:1006900020000123AC42A9D000F084FA431F9C4003
:1006A00076235B42181AA0E728000323002C9DD173
:1006B000013B9BE701218140A6200D00C0000540C1
:1006C00001421ED190208000014245D1B938FF3847
:1006D00001429CD003990291022BD0D0032B41D030
:1006E00000210800012BB6D1029B4902490AC0052E
:1006F0000843DB07184305B0F0BD0F2804D00B28D2
:10070000E8D03C00019BE7E78023DB031F4201D0D8
:100710001C4225D08021C9033943FF20E4E7320081
:1007200099E703001A331FDB01239E322100944016
:100730001B1AD940631E9C4121434B0704D00F2351
:100740000B40042B00D0043180230800DB04184048
:1007500019420CD1C908C7E780270295FF03D9E7E2
:10076000039B02932700D5E700210800BCE7002186
:100770000120B9E7FFFFFFF7F0B543025A0A85B041
:100780004F02440002924E007A0A9446C50F00922E
:10079000240E9B09360EC80FD200FF2E02D1010095
:1007A000002A01D101214140A01BA94200D093E0C1
:1007B000002836DD002E13D1B24207D0461E012894
:1007C00002D104009B181EE0FF2810D1DB08FF288F
:1007D0005ED1002B5CD08022D203FF20134357E070
:1007E000FF2C00D13DE180210600C9040A4301210C
:1007F0001B2E07DC2020801B11008240F140501E80
:10080000824111435B185A0100D412E1601CFE2C96
:1008100000D1D6E0964A59081140012213400B43FB
:1008200058E0002820D0301B002C08D1A34204D06F
:10083000441E0128C5D0FF2808D11300C6E7FF2EAB
:1008400000D108E180210400C9040B4301211B2CC5
:1008500007DC2020001B19008340E140581E834123
:10086000194334008B18CEE7FE21601C08422DD1BD
:10087000002C18D1A34200D1EBE0A24200D1DFE06E
:100880009A182000D308520102D50120794A13405A
:10089000FF22C005D2055B0210405B0A1843ED073A
:1008A000284305B0F0BD002B00D1D4E0002A00D1D0
:1008B000D2E080210298C903884203D3009888427D
:1008C00000D21300DB089C46019581E0FF2878D018
:1008D0009B185B080400ACE0002827DD002E1DD12A
:1008E000B24200D172E7461E012802D19B1A0400D1
:1008F0000EE0FF2800D169E701211B2E07DC202034
:10090000801B11008240F140501E824111435B1A4E
:100910005A0100D48DE09B019E0970E0FF2C00D1AC
:100920009FE08021C90406000A43E5E7002825D09E
:10093000301B002C0CD1A34207D0441E012802D149
:100940000D00D31AD3E7FF2809D113000D003DE7AE
:10095000FF2E00D182E08024E40423430400012020
:100960001B2C07DC18002025E0402C1BA3405C1E3C
:10097000A341184334000D00131AC9E7FE27661C73
:1009800003963E400196039E3E4233D184421AD1E3
:10099000834206D11D00824200D179E70D00009B01
:1009A00076E7002A4CD09E1A770106D50D00D31A9F
:1009B0000020834200D16BE78CE7331E00D005E7AF
:1009C0002500002364E7002B05D19A424BD001910A
:1009D0006346019DFFE6002A3ED08020029CC003B2
:1009E000844200D26EE7009C844200D36AE7130081
:1009F0000D0067E79E1A770114D50D00D61A300056
:100A000000F0D0F833000538834084420EDC202209
:100A1000001B0130121A19009340C1405A1E934125
:100A20000B43C5E7002EEAD10500CAE7124A241A93
:100A300013405A0704D00F221A40042A00D004336E
:100A40005A010ED5601CFE2CBBD00A4ADB081340AD
:100A50001EE71300ACE71300FF20B7E613000D00FC
:100A6000FAE72000B2E68023DB039C46B0E7C046ED
:100A7000FFFFFF7DFFFF7F1FFFFFFFFB41024300E2
:100A8000C20F490A00201B0E7E2B03DD9D2B02DDC9
:100A9000084BD0187047802000040843952B05DDD3
:100AA000963B9840002AF5D04042F3E79621CB1AB6
:100AB000D840F7E7FFFFFF7F002370B5040098429E
:100AC00009D000F06FF89E231B1A072808DD0828BC
:100AD00029D0083884406402D805640A204370BDD8
:100AE000124904281ADC020025001B3295402A0016
:100AF000551EAA4105252D1AEC40144322000A4038
:100B0000650709D00F252C40042C05D00432540170
:100B100002D59F230A401B1AD408DCE70528EDD034
:100B2000421F9440EAE79623D5E7C046FFFFFFFB4C
:100B3000844608006146FFE71FB500F0B5F80028BD
:100B400001D40021C8421FBD10B500F049F8404251
:100B5000013010BD10B500F0A7F8002801DB00201F
:100B600010BD012010BDC04610B500F09DF8002852
:100B700001DD002010BD012010BDC04610B500F001
:100B800054F8002801DC002010BD012010BDC04633
:100B900010B500F04AF8002801DA002010BD01204D
:100BA00010BDC0461C2101231B04984201D3000C38
:100BB00010391B0A984201D3000A08391B099842D0
:100BC00001D30009043902A2105C40187047C046E6
:100BD0000403020201010101000000000000000006
:100BE00070B5420244004E024D00C30F520A01206C
:100BF000240E760A2D0EC90FFF2C06D1002A13D120
:100C0000FF2D11D1002E06D00EE0FF2D0CD0AC42EE
:100C10000AD1B24208D100208B4205D00130002C0D
:100C200002D1531E9A41100070BD70B54A024402B1
:100C30004500640A2D0EC30F520ACE0FFF2D12D0AD
:100C40004900090EFF2901D1002A0ED120002843B6
:100C500000290CD000280ED0B34217D00120002B61
:100C600013D0404211E0002CEAD00220F9E788427C
:100C700006D1824209D00120002E06D1023804E0BC
:100C8000002AE9D101209342EBD170BD8D42E5DC11
:100C900001208D4205DB9442E0D800209442F4D23A
:100CA0000130002BF1D1E9E770B54A02440245005A
:100CB000640A2D0EC30F520ACE0FFF2D12D0490029
:100CC000090EFF2902D10220002A0ED1200028435C
:100CD00000290BD000280DD0B34217D00120002BE3
:100CE00003D011E00220002CE9D070BD884206D16B
:100CF0008242FAD00120002EF7D10238F5E7002A0F
:100D0000EAD101209342F0D04042EEE78D42E5DC8B
:100D100001208D4205DB9442E0D800209442E4D2C9
:100D20000130002BE1D1E8E7012310B503280CD8EE
:100D300009290AD8052A08D805334B433C214143E9
:100D40005B18034C9B185B001B5B180010BDC04672
:100D5000D0C50010F822411EFF39030030B5002035
:100D60005201914217D28022802480219200D8051E
:100D70001A40C00FE4000901DD040DD50001002A6E
:100D800001D020221043234201D0402210430B42C5
:100D900001D08023184330BD002A01D00222104325
:100DA000234201D0042210430B42F4D00823F1E780
:100DB00010B50C00FFF7CEFFA04710BD0300E03BCD
:100DC00010B50400072B02D90549002800D10549B8
:100DD0002000FFF7EDFFE0B200F056FA10BDC0466C
:100DE000F9130010D913001010B50400C0B200F0C0
:100DF0008FFA2300E03B072B02D90449002C00D1D5
:100E000003492000FFF7D4FF10BDC04609140010AD
:100E1000E9130010012070470120704710B5FFF75B
:100E2000FBFF10BD01207047012070470120704773
:100E300010B5FFF7FBFF10BD7047704710B5FFF707
:100E4000FCFF10BD012070477047704713B501913A
:100E500010496B4609780090002915D15B798B42C7
:100E60000DD08A420BD000F037FF0400010000983B
:100E700000F006FF2000009902F06AF916BD009804
:100E800000F014FF0400F5E7009800F025FF00993A
:100E9000F2E7C046800D002010B5040000890A006A
:100EA000002806D1638820881B04A1881843FFF717
:100EB000CDFF10BD10B504000121FFF7EDFF2100AB
:100EC000FFF7A8FF00280FD001212000FFF7E4FF63
:100ED0002100FFF7A3FF002806D001212000FFF723
:100EE000DBFF210005F072F90123184010BD70B539
:100EF00000210400FFF7D0FF05002100FFF79CFF51
:100F000028002100FFF79AFF70BD0123834010B530
:100F1000D8B200F006FE10BD10B504000120A040BC
:100F2000C0B201F00FFF2000FFF7EFFF10BD01205E
:100F3000704710B5FFF7FBFF10BD000010B50400AF
:100F400000F080FA2000FFF77DFF2000FFF7F1FF9F
:100F5000014809F00EFB10BD90D0030010B5012030
:100F6000FFF7ECFF07F0E2FC10BD10B50020FFF723
:100F7000E5FF07F0CDFC10BD70B504000D0006F0D4
:100F8000D3FF002804D001212800FFF785FF0400CB
:100F90002900200006F01AFC002878D02900200043
:100FA00006F06EFC002872D029002000FFF73CFFFD
:100FB00000286CD029002000FFF73AFF002866D0F7
:100FC0002900200007F0E4F8002860D02900200064
:100FD00004F076F800285AD02900200004F048FEDA
:100FE000002854D02900200005F086FE00284ED0AD
:100FF0002900200006F0B6FF002848D02900200074
:1010000004F0E6FC002842D02900200006F0FCFE97
:1010100000283CD02900200006F058F8002836D0DF
:101020002900200005F058FD002830D029002000BC
:1010300007F012F800282AD02900200002F0B4F9A5
:10104000002824D02900200005F09AFF00281ED097
:101050006B79002B0CD0144B9C421FD00CD8134B37
:101060009C4218D0124B9C4213D0033B9C420CD0A4
:101070002800FFF7D7FE0BE00E4B9C4211D00E4B21
:101080009C42F5D101F006FEF2E7FFF767FF002072
:1010900070BD01F043FEFFF768FFF8E701F006FEC0
:1010A000E6E701F008FEE3E75A7C0000017C00005F
:1010B000037C00005B7C00005C7C000010B5040039
:1010C0000121FFF7E9FE2100FFF756FF10BD10B523
:1010D000FFF7BAFE07F067FB00F046F810BD10B549
:1010E00000F047F8FFF7B1FE07F062FB10BD030008
:1010F0000020002B00D170475A1E01301340C0B2AF
:10110000F7E70423020901D113000200910801D07E
:101110000A00023352089818C0B270473322030104
:101120000009184340B283008008104093430343F2
:101130005BB2223258005B08904313401843C0B2A0
:10114000704701207047704770B5051CFFF7F9FF25
:10115000041E02D0281CFFF7F6FF200070BD704768
:1011600010B5FFF7F1FF10BD10B50020FFF7F8FF35
:1011700010BD10B507F016F9FFF7F2FF10BD000023
:1011800010B507F00FF9074B04001A78824207D018
:10119000187007F079FB044B18602000FFF7E0FFA0
:1011A00010BDC046780D00207C0D002070B586B0C3
:1011B0000C0A0191C9B26D460090E4B200293ED0FC
:1011C00000220199FFF742FE214A002C06D000219F
:1011D000204B1080197001F0DFFB05E0138883427B
:1011E00002D101221B4B1A7004261220320000216A
:1011F00068440BF0EFF8009B03AC0393AB88A3802B
:10120000154B5B781E4210D0144B5B88002B0CD022
:1012100001F066FB002802D0022001F00BFD01F076
:101220003BFB002801D001F049FC2379002B09D1B8
:1012300003986168A26801F0ABFA06B070BD8C42F9
:10124000D2D0C8E72000FFF735FE0028F0D1F4E740
:10125000840D0020860D0020E83300204835002052
:10126000037910B5012B02D1008800F057FD10BDA5
:1012700010B5002904D006F083F806F049F910BD36
:1012800006F0D2F8F9E7000010B5041E11D0031FD4
:10129000DBB2A02B0ED807F027F9002804D02000DD
:1012A00007F0A8F901F082FC200007F087F901F0AF
:1012B0007DFC10BD03002033DBB2072B07D80723CA
:1012C000034001209840C0B201F034FBEFE7030077
:1012D0005B33DBB2022B04D8243CA0B207F0A0F8A9
:1012E000E7E703005833DBB21A2B05D8074A5B0047
:1012F000985A07F0AFF8DCE703003333DBB2122B68
:10130000D7D806F03DF806F003F9D2E7B0C70010D1
:1013100010B5002807D0031FDBB2A02B04D807F0BC
:1013200069F901F043FC10BD03002033DBB2072B49
:1013300007D80723034001209840C0B201F002FB08
:10134000EFE703005B33DBB2022B03D8002007F08A
:1013500067F8E8E703005833DBB21A2B03D8002004
:1013600007F078F8DFE703003333DBB2122BDAD86B
:1013700006F05AF806F0CCF8D5E7000070B5040086
:101380000D00FFF781FF0120002D0ED000230A4A37
:10139000280000210BF038F80023084A8018594132
:1013A000FA22002392000BF027F809F0E2F820005F
:1013B000FFF7AEFF70BDC04640420F00E7030000DC
:1013C00010B5044B392803D1198CFFF7D7FF10BD96
:1013D000D98BFAE74835002010B5002803D001F07A
:1013E000A9FA01F0E3FB10BD10B5002803D001F00D
:1013F000A9FA01F0DBFB10BD10B5002803D001F005
:10140000B5FA01F0D3FB10BD10B5002803D001F0F0
:10141000B5FA01F0CBFB10BD10B5002007F000F8C5
:10142000002007F017F801F0B7FA01F0BFFB06F053
:10143000E3F806F06DF810BD10B507F0F7F8FFF708
:10144000EBFF10BD10B501F085FAFFF7F5FF10BDF9
:10145000C2B20004000F062817D00F2306280DD8AB
:101460000E3003400020012B07D80120F02A04D0C1
:1014700006D80020E7239342404170470630F0E74A
:10148000F43A50425041C0B2F7E71000F1384342FD
:101490005841E721002391425B411843EDE702796F
:1014A000030010B5101E06D01889002804D001F0E2
:1014B00069FDFFF7CDFF10BD188800F02FFCF8E79D
:1014C000F0B587B0062202900C1C010004A80AF0B7
:1014D00089FF029B27045D799B791B061B0F0093F4
:1014E00001F018FA0190002828D00195002D25D090
:1014F0003B0E0F2219009143402910D0E1B20A009F
:1015000000202032D2B20190072A17D91F2293431C
:10151000202B04D1012911D9009B83420ED0002237
:10152000B04B01925B785B0708D5022001F082FB8B
:1015300001F0F0F901234340DBB201933B0F039329
:101540000B2B64D81800FEF7F9FE0C000C003D00D0
:101550003D0007011C0162006200210189019A011E
:101560009A012605360F3F0E0F2F00D93601E7B23C
:10157000002D12D0002E0BD03B002033DBB2300008
:10158000072B01D9002F05D101F0D4F901F00EFB92
:1015900038003AE001F0EAF9F8E73800FFF7B8FE62
:1015A000AE4234D03B002033DBB23000072B01D9F0
:1015B000AF4202D101F0C6F901E001F0DFF901F01C
:1015C000F5FA24E00F2326053F0E360F9F43202F08
:1015D00000D03601E7B2002F09D0012F00D18AE0F8
:1015E000009B002D00D196E0002B4ED0D0E77D4B24
:1015F0005B785B0744D4BD423BD0BE4204D0300090
:1016000001F098F901F0D2FA0020FFF73DFE039BAC
:10161000083B032B05D806F0C5FEFFF7A1FD00230C
:101620000193201CFFF714FF002809D0002D00D1E2
:10163000CBE1009B002B00D1BFE100226A4B1A7066
:10164000019B002B13D001F043F9012302001A4043
:1016500018420CD1029B5A7101F034F900F0A0FA43
:10166000029800F00BFA01F02DF900F0A5FA07B08E
:10167000F0BD2800FFF74CFE002EC8D0300099E7DF
:10168000009B002D1DD0002B03D13000FFF7A4FEDE
:10169000BDE7009B012B03D1300001F0C9F9B6E78B
:1016A000524B1B7F012BB2D9009A9342AFD130002D
:1016B000FFF792FE300001F0D1F9300001F096F909
:1016C000A5E7AB4209D13000FFF78EFE300001F0F4
:1016D000C5F9300001F098F999E7444B1B7F012BC5
:1016E00095D9009B012B00D091E701F01DF906422E
:1016F00000D18CE7E7E73E4B009ADB7F002D03D05B
:101700009A4200D983E7C0E79A4200D37FE73000CE
:10171000FFF76AFE7BE7AB42F9D0344B392F11D18A
:10172000188CA84211D000232900324A0AF06CFE1E
:101730000023314A80185941FA22002392000AF00E
:101740005BFE03E0D88B0028EDD1012008F011FFEB
:101750003800FFF7DDFD5AE72005800F0AD0012889
:1017600000D054E70020854201D0A005800D06F08E
:1017700071FE4CE7854201D0A005800D06F050FEB9
:1017800045E72900E0B2FFF773FD40E7BF01BF0F57
:1017900034D1BD4200D03AE71021080023065B0F88
:1017A0009B002207DBB2120F9A402040214202D058
:1017B0000F209840C043230510439B0FC0B2022B5B
:1017C00009D0032B0AD0012B02D000F0B9F91EE793
:1017D00000F0ACF91BE700F0BDF918E700F0A1F943
:1017E00015E7C046E8330020860D0020483500206C
:1017F0004B35002040420F00E7030000A3059A0F7D
:10180000002D1ED0D20700D401E7102108002306C6
:101810005B0F9B002207DBB2120F9A40204021424F
:1018200002D00F209840C043230510439B0FC0B245
:10183000022B0DD0032B0ED0012B06D000F0DEF9C9
:10184000E5E6012A00D8E2E6DFE700F0CDF9DEE6C2
:1018500000F0DEF9DBE600F08DF9D8E62605E7B208
:10186000360F002D04D0300000F09AF938000DE753
:101870003800FFF7B9FD300000F09EF9C7E6E6B288
:101880003000F03804286CD8FEF74EFD0329141BF5
:101890002500664B009ADB7F002D07D09A4200D3CB
:1018A000B5E6E004C00E00F093F9B0E69A4200D924
:1018B000ADE6F6E7E004C00E002DDDD100F070F9D2
:1018C000A5E6002D04D0E004C00E00F062F99EE60B
:1018D00000F05AF99BE6564B5B785B0704D4E004B2
:1018E000C00E002DC8D0E9E7524E337F012B25D919
:1018F000002D16D000F0ECFF042808D101F08CF97F
:10190000E004C00E00F058F9002301937FE6337F16
:10191000009A9342F8D90321E004C00E01F05EF969
:10192000F2E7009A934205D801F076F9E004042129
:10193000C00EF3E7012001F07DF9E5E7002D05D0A9
:10194000E0040321C00E01F049F960E6012001F036
:1019500071F9009B012B00D859E6022001F06AF9C9
:1019600055E6009B002D06D03000002B00D04CE641
:10197000E004C00EA2E7AB421CD02E4B392E11D191
:10198000188CA84211D0002329002B4A0AF03CFDF4
:1019900000232A4A80185941FA22002392000AF0B3
:1019A0002BFD03E0D88B0028EDD1012008F0E1FDEC
:1019B0003000CEE6E004C00E5EE7214C214B2278D9
:1019C0001A7000F0B1FF20703AE62A0005990498D9
:1019D000FFF73CFA060000F0A7FF009B0500002B74
:1019E00005D00022184B1A70154B1D7028E6174BB6
:1019F0001888B042F8D1029903F0F4FD0028F0D025
:101A0000114B1B78002BECD00E4E3078FFF7E4FC26
:101A1000012008F0AEFDE0B2FFF7D2FC012008F093
:101A2000A8FD3078FFF7E0FCDBE7C0464B3500202F
:101A3000E83300204835002040420F00E703000053
:101A4000810D0020820D0020860D0020840D0020D5
:101A500070B50500008900280BD001F093FA041C32
:101A600000F0E0F800F05CF82800211CFFF728FDEA
:101A700070BD6879298800F05BF9F0E7037910B54B
:101A80000400002B14D000F0C3FA2000FFF716FB6F
:101A900000280ED100F03EFF002809D06379002B0A
:101AA00006D0074B5B785B0702D5022001F0C2F835
:101AB00010BD2000FFF7CCFF2000FFF718FAF7E772
:101AC000E8330020A023DB01984204D280239B014D
:101AD000984208D27047054BC318FF2BFAD8044B25
:101AE000C318062BF6D9C0B2F4E7C04600AAFFFF20
:101AF00010A9FFFF82B002B0704784B004B07047F5
:101B0000704710B5FFF7FCFF10BD704710B5FFF729
:101B1000FCFFFFF7F6FF014B187010BDA00D002071
:101B2000704710B5FFF7F2FF10BD000010B5034B72
:101B30001B781843C0B2FFF7E9FF10BDA00D0020CD
:101B400010B5034B1B781840FFF7E0FF10BDC046EF
:101B5000A00D002010B5034B1B785840C0B2FFF712
:101B6000D5FF10BDA00D0020704710B5FFF7FCFF9A
:101B700010BD704710B5FFF7FCFFFFF7F6FF014BF4
:101B8000187010BD9F0D002010B50020FFF7F2FF68
:101B900010BD0123834010B5D8B2FFF7EBFF10BD95
:101BA0000123834010B5034A12781343D8B2FFF7DC
:101BB000E1FF10BD9F0D00200123834010B5034AB3
:101BC00010789843C0B2FFF7D5FF10BD9F0D0020DD
:101BD0000123834010B5034A12785340D8B2FFF76F
:101BE000C9FF10BD9F0D002010B5034B1B78184393
:101BF000C0B2FFF7BFFF10BD9F0D002010B5034B13
:101C00001B781840FFF7B6FF10BDC0469F0D00209F
:101C100010B5034B1B785840C0B2FFF7ABFF10BDA7
:101C20009F0D00207047032370B50125CC08634346
:101C3000D21807232E0019408E4000210300CB400C
:101C4000545C2B405B42634033405C405454013150
:101C50000329F3D170BD30B50724032300220440CB
:101C6000C008434301251000C9188B5CE3402B409A
:101C7000934001321843C0B2032AF6D130BD0000B0
:101C800013B5030A01AADBB210800800092B09D89A
:101C90001178052906D806246343C918024A89B277
:101CA000FFF7C1FF13BDC046870D002007B5020A2C
:101CB00001ABD2B218800020092A09D81B78052B65
:101CC00006D8062050431818024980B2FFF7C3FF18
:101CD0000EBDC046870D0020F7B5032401270D4B2C
:101CE0000D4A1B78127801AE1343DBB230800093AB
:101CF000009B23413B4204D1013CF9D2002528003E
:101D0000FEBDE5B22800316801F042FA80B2012838
:101D1000F2D0F4E79F0D0020A00D002007B501AB25
:101D200018800198FFF7D8FF019901F031FA0EBD34
:101D300013B501AB19800E4B1B78002B03D0019813
:101D4000FFF7ECFF16BD98420CD00198FFF7C4FFD7
:101D5000040001000198FFF793FF2000019901F0B2
:101D600017FAEFE70198FFF7A1FF0400F5E7C04677
:101D7000800D002030B5012425008D40290025006C
:101D800095402A009C4003000A43D1B2A34302407D
:101D90008A4201D12043C3B2180030BD10B50400FF
:101DA0001300044A10780A002100FFF7E3FFFFF751
:101DB000E1FE10BD9F0D0020044B1A7800239342D2
:101DC00000DB704701335BB2F9E7C046020E00202A
:101DD00070B507260C4B1C780C4B1B78A34200D126
:101DE00070BD0A2262430A4B0134D15A9B185888AD
:101DF0009A8800040843D9883440090411431A8999
:101E0000FFF77BFEE8E7C046A10D0020A20D0020F1
:101E1000A40D0020064B10B558881A88D9880004F4
:101E200010439A88090411431A89FFF766FE10BD12
:101E3000F40D002073B5094D01AE2C783080072CCD
:101E400002D9FFF7FFFA002405486300310002229F
:101E5000C01801340AF0C6FA2C7073BD020E0020BF
:101E6000030E0020F7B501AE30801B4D2B78009398
:101E70001A4B009A1B7893422CD00A24009B184FCF
:101E80005C43E4196379002B0DD02000FFF707FBBA
:101E9000002808D00F23A27920881A400133134369
:101EA000A371FFF7C7FF2000FFF7E8FD07222B789B
:101EB000013313402B700A23009A70785A43BB18E1
:101EC00059788842D1D13178BA5C9142CDD15B79D1
:101ED000002BCAD0F7BDC046A10D0020A20D0020E6
:101EE000A40D0020F7B50E4C0E4B24781B780194FE
:101EF0000D4C019DAB4201D10020FEBD0A265E4380
:101F0000A5196F788F4205D1365D864202D16D7971
:101F1000954203D1072501332B40EAE70120ECE786
:101F2000A20D0020A10D0020A40D0020F8B51F4C2B
:101F3000A3790F2B35D86379002B32D01C4B1D7839
:101F40001C4B1B78AB422CD00A226A431A4BD61882
:101F50003179002926D070786178884222D1D25C0C
:101F600023789A421ED1717900291BD17788638822
:101F70002000FF1AFEF790FF2100BFB203F07AF8AD
:101F800087420FD20F211022A37920000B40134368
:101F9000A371B3790B401A43B271FFF76FFDFFF7DE
:101FA00017FFF8BD072301351D40C9E7F40D0020D8
:101FB000A10D0020A20D0020A40D00200621020A80
:101FC000D2B24A43034BC0B29B18185C82B002B035
:101FD0007047C04694C5001070B503790D00012B01
:101FE00001D0012070BD0B79012BFAD10088FFF7D9
:101FF000E5FF04002A28F4D02888FFF7DFFF241A21
:102000002A38631E9C41434258412043EAE70000BE
:1020100010B504000021FEF73FFFA1790F290CD86D
:10202000224A234B12781B789A4234D1214B5A7999
:10203000002A02D09B790F2B2DD96379002B0BD16D
:10204000A023DB0198421BD280239B01984229D216
:10205000E7280AD8DF281ED8174B18806288174B4C
:102060001A800022164B1A7015E0F822431EFF3B1F
:102070009BB252019342EFD2C3B2002BECD10AE0E3
:10208000104B984208D85F3B984204D20E4BC318BD
:102090009BB21F2BE0D810BD0C4BC3189BB2012B79
:1020A000DAD8F8E70F29D7D8F5E7C046A10D002008
:1020B000A20D0020F40D0020000E0020FE0D0020D7
:1020C00038070020DF520000E0ADFFFF8983FFFFEB
:1020D00010B5040000F028FC9D23184212D1200006
:1020E000FFF7F0FC1D2809D80323834280414042BA
:1020F00010BD0548D84001231840F9E72C3883B2B9
:102100000C2BF6D90020F3E7811C00001D4B70B5A5
:102110001B780400002B01D0002070BDFA264588F2
:1021200076006D1AADB2B542F6D21900FEF7B4FED4
:10213000C022154B9201C3189BB29342ECD2134BB1
:1021400021001A8803F09EFA031CB04200D9331C08
:102150009BB2AB42E0D9608823880004A188184371
:10216000FFF7C8FC0F23A27920881A4001331343DC
:10217000A371FFF75FFEFFF71FFE2000FFF77EFC55
:102180000120CAE73807002000E0FFFF000E002012
:10219000F0B504008DB00100062207A80AF022F96C
:1021A000237867790393637826790293638804938D
:1021B000002F05D13800C24BC2491B78984224DB5E
:1021C000C14D2B79002B4AD19E4200D175E29F422E
:1021D00000D1CBE22000FFF762F9002800D1C5E270
:1021E000BA4B20001988FFF791FF002800D064E265
:1021F0000A22210028000AF0F5F82800FFF730F83D
:10220000FFF794FEFFF706FE57E242008D18944652
:102210006D78029A954204D16246039D525CAA42AF
:1022200002D0013040B2C9E7421CC9D00F22A579C3
:10223000C0B2154001322A43A27198420CD2A04A82
:10224000013BDBB21370984206D240005B000818D5
:102250000222C9180AF0C6F8FFF7AEFDB0E7002168
:102260002800FEF719FE01906B79049A00936B88A1
:10227000D31A9BB20593009B002B00D11FE20021D3
:102280002800FEF709FE290002F0F4FE059B9842A3
:1022900000D8EBE1002E00D10FE2AB7969786278CB
:1022A0000F2B00D9ABE1914240D12978227891429D
:1022B0003CD129892289914238D1002F36D10F2271
:1022C0001A4010231343AB71FFF7A4FD2800FFF75A
:1022D000D5FBAB79A3716E887D4D7E4A2B78127841
:1022E0009A4206D00A2253437B4CE4186379002BB0
:1022F00005D1FFF76DFD002528000DB0F0BD2000D1
:102300006788FFF7CCF8002809D12000FFF7B6FB5B
:1023100007222B783E00013313402B70DCE731009D
:102320002000FFF7F3FE0028F2D1E2E7C022019B74
:102330006A4992015B189BB2934273D2002F00D07E
:1023400028E13A0002990398FFF7CCFDB84245D145
:10235000002202990398FFF7C5FD002800D1E1E0B3
:10236000594D0198290003F027F9002800D1D9E040
:102370002800FFF783FB00212800FEF78DFD0827CA
:102380000600534B1C78534B00951B78A3420DD08D
:102390000A226243504D0021551928000294FEF78D
:1023A0007BFD6B790190002B00D099E0072F06D8B8
:1023B0000A250726464C2078B84200D0A8E00798A6
:1023C000FFF750FDFFF7F8FCFFF702FD0A2200219E
:1023D0003D4809F0FFFFFFF71DFD8CE739002000A5
:1023E000FEF75AFD384D020023002900019803F042
:1023F0003BF90028ACD10F23AA7928881A40013371
:102400001343AB71FFF716FD2800FFF737FB0A22D5
:102410003900280009F0DEFF0798FFF723FDFFF7DA
:10242000CBFC66E7002F93D00123274A91790B4319
:1024300093712549019803F0C7F8002800D15AE7A5
:102440002148FFF71BFB234B214C019320781B787D
:10245000834200D1CDE00A2778431F4E8019FFF751
:102460001EF8002800D1C4E023783A00190079430F
:1024700015487118009309F0B5FF0722009B01333E
:1024800013402370FFF7A4FCFFF7C4FC0A250727BD
:10249000019B20781B78834200D12AE768430E4EC7
:1024A0008019FEF7FCFF002800D022E7207868435F
:1024B0008019FFF7E3FA237801333B402370E7E705
:1024C000020E0020030E0020F40D0020FE0D00205F
:1024D000A10D0020A20D0020A40D002000E0FFFFB0
:1024E000C022A74B9201F3189BB2934200D35DE741
:1024F0002B003000019A009903F0B6F8002800D1B3
:102500003C0027000724029B019E01331C403AE750
:1025100068439C4BC018FFF7B1FA2378013333406E
:10252000237047E7020002990398FFF7DBFC051EC2
:1025300000D0E0E60798FFF7F1FBC3B200040F21DB
:10254000020F032A08D8012A0FD9000E014212D027
:10255000A2790F2A0FD8CFE606320A40012A10D9F5
:102560002000FFF78BFA009DC6E6000E014202D064
:10257000002B00D1C0E62033DBB2072B00D8BBE62E
:10258000EEE7EF2B00D8B7E60F33DBB2022B00D813
:10259000B2E6E5E701277C4D0021AB7920003B4303
:1025A000AB71FEF779FC230002002900019803F0CB
:1025B0005BF8002800D03CE7AB792000BB43AB714F
:1025C000FEF76DFF041E00D095E60F23AA79288838
:1025D0001A40DB191343AB71FFF72CFCFFF7ECFB40
:1025E0002800FFF74BFA0A222100280009F0F2FE2A
:1025F00081E60A220021644809F0ECFE44E791429A
:1026000013D12978227891420FD1298922899142C8
:102610000BD1002F09D1A3712000FFF72FFA0A2256
:102620002100280009F0DEFEECE52000FEF737FF70
:10263000002800D19AE0002F00D197E0524B9A7900
:102640001F2A0DD9198809A8018004994180197998
:1026500082710171002141711B890381FFF70EFA1C
:102660000A222100484809F0BDFEC9E5AB790F2BCD
:102670000AD807980899FFF73DFA2800FFF7FEF9F6
:102680000A2200212800A4E6002E16D0697862787C
:102690009142CAD1297822789142C6D129892289CA
:1026A0009142C2D1002FC0D12000A371FFF7E6F9FB
:1026B0000A223900280009F08DFE01251CE6009948
:1026C0002800FEF7E9FB290002F0D4FC059B9842A4
:1026D00050D9002EF1D0002F48D06A7863789A4202
:1026E0002DD12A7823789A4229D12A8923899A429E
:1026F00025D16E88049B009928009E1BFEF7CCFB19
:102700002900B6B202F068FF864212D2AB79DB072D
:102710000FD4AB790F2B0CD90F21A3718B43F02B66
:1027200000D179E7A3791A09013212010B40134352
:1027300071E70A222100280009F054FEBDE72000BD
:10274000FEF7ADFE00280DD0104B20001988FFF7D2
:10275000DDFC002800D183E70A220021280009F0CF
:1027600039FE4FE50123AA791343AB712000FFF72F
:1027700085F9A2E707980899FFF7BCF980E7C046FA
:1027800000E0FFFFA40D0020F40D0020FE0D00204E
:10279000F0B589B001AC019020006160A260FFF744
:1027A000F7FC2379061E324D26D0002B04D0019869
:1027B0006168A268FFF7A1F92E4E2B78307883422A
:1027C00007D00A2358432C4FC019FFF7E1FC00281B
:1027D00039D12379002B0DD128490B78002B09D151
:1027E000274A638812889B1A264A9BB2934201D9D2
:1027F00001230B7009B0F0BD210005AA81C981C277
:1028000009881180B342D7D007222B78194F591C61
:1028100011403A78009191420BD00A225343164856
:1028200005A9C01809F0DEFD009B2B70FFF7D0FA58
:10283000C2E7FEF707FE0A22310013482E703E70F1
:1028400009F0C8FDB8E70A2233785343DA5BFB1876
:102850005888D988000410439A88090411431A89BA
:10286000FFF74BF907223378013313403370A3E7A6
:10287000A20D0020A10D0020A40D0020380700208B
:10288000FE0D0020FE3F0000F40D0020014B1878E3
:102890007047C046420E002070B50024074D6B887B
:1028A000A34209D006F02EF8054B1B88C01A6B888E
:1028B00080B298426441E4B2200070BD48350020E7
:1028C000400E0020014B1878C00870473E0E0020D3
:1028D0000720024B1B7818407047C0463E0E002070
:1028E00010B506F00FF8084B084A1B885288C31A27
:1028F0009BB200209A4205D8054B18780123400767
:10290000C00F584010BDC0463C0E00204835002086
:102910003E0E00200720034B1B781840431E9841B1
:10292000C0B270473E0E0020014B18787047C04679
:102930006F0E0020024B1A78104318707047C04683
:102940006F0E0020024A1378834313707047C0460D
:102950006F0E00200022014B1A7070476F0E00208E
:10296000014B18787047C0466E0E0020024B1A7853
:10297000104318707047C0466E0E0020024A13784C
:10298000834313707047C0466E0E0020014B1870D1
:102990007047C0466E0E00200022014B1A7070472F
:1029A0006E0E0020014B18707047C0466D0E00205F
:1029B0000022014B1A7070476D0E0020014B1870F9
:1029C0007047C0466C0E00200022014B1A70704701
:1029D0006C0E0020014B18787047C046430E002053
:1029E000704710B5FFF7FCFF10BD0000010010B5E7
:1029F000044A13781940814203D018431070FFF73E
:102A0000F0FF10BD420E002010B5054A13781842A1
:102A100004D0834318001370FFF7E3FF10BDC046D6
:102A2000420E0020704710B5FFF7FCFF10BD0000FC
:102A300070B5084D04002B780340834209D005F09F
:102A400061FF054B18802B78200023432B70FFF784
:102A5000EAFF70BD430E0020400E002010B5084C68
:102A6000237818420BD0834300202370834201D087
:102A700005F048FF034B18802078FFF7D4FF10BD06
:102A8000430E0020400E0020094B70B55B78040017
:102A90005B070BD5074D2B78834207D005F032FF3B
:102AA000054B2C7018802000FFF7BDFF70BDC0469D
:102AB000E8330020430E0020400E002010B5054BE7
:102AC0001A78002A05D000201870034B1880FFF7F1
:102AD000AAFF10BD430E0020400E002070B5114A21
:102AE000114B14781B78114D1C432B78002B11D0FF
:102AF0000F4B5B88002B05D0FFF7CEFE002801D0DE
:102B0000FFF7DCFF2B781C4305F0CAFC002801D03E
:102B1000FFF7D4FF074B1B789C43074B1B781C43E4
:102B2000E0B270BD6F0E00206E0E0020430E00203C
:102B3000483500206C0E00206D0E002070B50B4C47
:102B40002568FFF7CBFF2870246808222000084979
:102B500009F032FC002807D008222100044809F0BF
:102B600041FC200005F034FC70BDC0464007002049
:102B7000330E002070B50B4C2568FFF7AFFF68706F
:102B8000246820222000084909F016FC002807D0FC
:102B900020222100044809F025FC200005F024FC37
:102BA00070BDC0463C070020130E002010B505F094
:102BB000F1FB002806D0054B1B787F2B02D9FFF7CD
:102BC000D9FF10BDFFF7BAFFFBE7C046E83300208E
:102BD000704710B5FFF7FCFF10BD00000B4B10B5A0
:102BE0005B785B070ED5C300094C19432170FEF7D3
:102BF000D7FF05F087FE074B18802078C008FFF745
:102C0000E8FF10BDFEF7CCFFFBE7C046E83300202D
:102C10003E0E00203C0E0020002010B5034B187023
:102C2000034B1880FFF7D5FF10BDC0463E0E0020B5
:102C30003C0E002010B5094A137819008143117029
:102C40004A070AD1994208D0054B5B785B0704D547
:102C5000C808FEF7B1FFFFF7DFFF10BD3E0E0020F2
:102C6000E83300200A4910B54B785A07D20F824248
:102C70000CD0012202400420920083431343080039
:102C80004B7000F067F80220FFF7D4FF10BDC0467C
:102C9000E8330020044B10B5587801234007C00FDB
:102CA0005840FFF7DFFF10BDE833002010B50120CA
:102CB000FFF7D8FF10BD10B50020FFF7D3FF10BD00
:102CC00010B5002000F0D3FB10BD10B5002000F0BF
:102CD000C8FBFFF7F5FF10BD07B500F077FB00F06C
:102CE00087FB6A4600236846137000F09CFB0120B6
:102CF000074B187000F0A2FBA0236A465B0101A8F5
:102D0000938000F0A8FB05F026FAFFF7DEFF07BD71
:102D1000A00D002010B5FFF7DFFF10BD10B500F0CB
:102D20006FFB10BD10B500F057FB002801D005F077
:102D3000D7F910BD10B500F06FFB10BD10B500F055
:102D400078FB10BD10B500F079FB10BD10B500F098
:102D50007BFB10BD10B500F07EFB10BD10B500F080
:102D60008CFB10BDF7B505F0CDFD094D06002B8895
:102D700083420BD06C460027278005F0C3FDA78057
:102D8000608000980199FEF711FA2E80F7BDC046C9
:102D9000700E002010B500F0F7FA024B1860024BDD
:102DA000186010BD800E00207C0E00207047704718
:102DB00010B5FFF7FCFF10BD704710B5FFF7FCFF23
:102DC000FFF7F6FF10BD704710B5FFF7FCFF10BD11
:102DD000704710B5FFF7FCFFFFF7F6FF10BD0120AD
:102DE0007047000010B5074800F050FB01F022FBCF
:102DF00001F0B6FE02F02AFBFFF7D8FFFFF7DDFF78
:102E000010BDC046D993001010B500F013FE10BDE0
:102E100070477047704710B5FFF7FAFFFFF7F9FFEB
:102E2000FFF7F8FF10BD000010B5FFF77BFF00288B
:102E300001D1FFF76FFF0848FFF77CFF0748FFF756
:102E400085FF02F0EFFEFFF779FFFEF76AFE044B05
:102E50001878FEF78AFE10BD840E0020E8330020AB
:102E60009F0D002010B505F00BFD00F079FA05F07C
:102E700081F900F0E9FD00F00FFDFFF7D5FFFEF747
:102E80006EF903F0FFFA00F0F7FDFFF7A2FF10BDA7
:102E900010B500F0CFFD00280BD003F011FF05F0B6
:102EA000B7F803F041F902F041FD02F0FBFF04F036
:102EB0000BF910BDF0B587B0FFF791FF002809D1DD
:102EC000FFF750FFFFF7E4FF04F0C0FBFEF758F9EF
:102ED00007B0F0BD00F02EFD0024284DE0B22E5DBD
:102EE00000F0F8FA092C46D001348642F5D0244B84
:102EF0001B789B0701D500F0F3FAFFF785FF2E0042
:102F000000240390200000F0E5FA337802000190DD
:102F1000984228D05A400023012702920093029B36
:102F20003B40DBB2002B15D0039B002B12D0009B43
:102F300004AD2B706C7005F0E5FC01232B71019B37
:102F400068803B40DBB25A1E93416B71049805992F
:102F5000FEF72CF9009B7F000133DBB20093062BB8
:102F6000DDD1019B33700134E4B201360A2CC9D1A2
:102F7000FFF710FFA6E78642B9D1A1E7720E002045
:102F8000840E002070B500F00DF9A4230400DB01CD
:102F900098424BD2A023DB01984200D39BE0DF286C
:102FA0001BD8CC2858D8A7280AD8A42800D976E05E
:102FB00001282FD0031F9BB2A02B2BD9002429E07E
:102FC0000300A83B9BB21A2BF8D85834514BE4B2FB
:102FD0006400E35A8824E4013EE08023DB01984248
:102FE0001AD28026B601B04200D384E0E72811D976
:102FF000431EFF3B013EFF3E9BB2B342DED2000ABE
:10300000C0B200F061F90502E0B200F0CBF8354043
:1030100028430400201C70BDC0B200F0C3F8F023A8
:103020001B0123403C4C18430443F3E7A523DB0179
:1030300098421DD2394B98423AD8394B98420DD814
:10304000384B98422FD80322C4B2A3081440023A46
:10305000A2405B01344C13431C43DBE703210122F4
:1030600001408A40C3065B0F5B01304C1343F3E71A
:103070002F4B984207D81F202E4B20409C4221D82E
:103080002D4C0002D0E72D4BC3189BB21F2B00D94B
:1030900094E7F82203025201294C1340DCE7802315
:1030A000243CDB01D8E71F230340264C1B02D3E757
:1030B0000321012201408A40C3065B0F5B01224CC1
:1030C0001343C9E700F000F9F823802400025B01F4
:1030D0001840A401A8E71F20204000F0F5F8E30500
:1030E0001B0F02001B02C00602D5FF2112010A407D
:1030F000164C1343B0E7C004C00E00F0E5F805021B
:10310000E0B200F04FF8F82334005B011D400543A6
:103110002C437FE7E6C7001000A0FFFF5F520000CE
:103120003F5200001F520000008DFFFF008CFFFF88
:10313000BF5200009F520000F4A0FFFF40ADFFFF10
:10314000F0A0FFFFF1A0FFFF008AFFFF0090FFFF4C
:103150000D4B37B51C68002301AD29809C4207D177
:1031600069782A78F02905D18A4201D1074B1B885A
:1031700018003EBD23000929FAD8052AF8D803F023
:1031800041FA0300F4E7C0467429002046350020C8
:1031900007B501AB19800199FFF7DAFFFFF7F2FEDF
:1031A0000EBD0000030010B5E7280AD8DF280AD8B2
:1031B000312800D173E00FD8292866D02A2800D101
:1031C00074E0180010BDE0380728FAD8FDF7A2F81F
:1031D00018F927303DF9474C392808D0822806D005
:1031E0003528EED1374A12789206EAD506E0354AFC
:1031F0001178890761D152781207E2D52923E0E7D7
:1032000030480121027814000C400A4245D1407830
:103210000142D6D02300D206D3D4E323D1E7294AF2
:1032200012785107CDD50023D206CAD4E333C8E7BC
:103230002449E2230A785007C3D4012004004978C6
:10324000023B0C400842E5D0BBE71E4A5178890793
:10325000B7D512780023D206B3D4E733B1E7194AC1
:1032600012781107F6D4ACE71649E6230A7810075E
:10327000A7D4022004004978023B0C400842A0D1A8
:103280002300D2069DD4E7239BE70E4A11788906D6
:1032900015D45278120700D493E7392391E7094AED
:1032A0001278520600D48CE72A238AE7054A12785E
:1032B000520600D485E7312383E7E02381E73523F5
:1032C0007FE7C046E833002030B5244C21784B0717
:1032D0000DD514220240043A53425A4118230340A8
:1032E000083B5D426B419A4201D00C2358400B07CA
:1032F0000DD514220240143A53425A411823034078
:10330000183B5D426B419A4201D00C2358406478CF
:10331000E3070DD511220240013A53425A411823C6
:103320000340083B5D426B419A4201D0092358405B
:10333000A4070DD511220240113A53425A411823D5
:103340000340183B5C4263419A4201D00923584034
:10335000C90601D51823984330BDC046E833002084
:103360000022014B1A607047EC33002010B50400B6
:1033700000F060FB002804D105F086FA014B241A06
:103380001C6010BDEC33002010B500F053FB00288A
:1033900002D005F079FA10BD05F076FA014B1B68F2
:1033A0001818F8E7EC330020074B10B5C3180124B8
:1033B0001F2B06D84C79002C03D11F231840FDF792
:1033C000ABFD200010BDC04620ADFFFF10B50020B2
:1033D00001F034F810BD000010B5002000F0B9FF76
:1033E000024BC01843425841C0B210BD1D01FFFF3F
:1033F00010B50020014901F005F810BDE3FE000002
:1034000010B5002001F01AF80020024900F0FAFF80
:1034100010BDC046FFFF000010B50400022000F000
:103420008CFF207010BD10B50178022000F0DEFF87
:1034300010BD10B5032000F080FF10BD10B50100D5
:10344000032000F0D3FF10BD10B50400042000F0ED
:1034500080FF208010BD10B50188042000F0D2FF4D
:1034600010BD10B501000F2000F0D8FF10BD10B541
:103470000100132000F0D2FF10BD10B501000E2096
:1034800000F0B4FF10BD002070470000014B186031
:103490007047C0464407002010B5024B1B68984790
:1034A00010BDC04644070020704710B5FFF7FCFF71
:1034B00010BD704710B5FFF7FCFF10BD044B1A5C40
:1034C000012088401040431E9841C0B27047C0465A
:1034D000FB330020014B185C7047C046FB330020D3
:1034E00010B50D4800F01EFF002421000B4800F02D
:1034F00019FF0B4800F016FF0A4B185DFDF70EFE92
:103500000100094800F00EFF0134084800F00AFFEE
:103510000A2CEAD110BDC0461CC800102BC80010F0
:1035200030C80010FB33002033C800107FC80010E3
:1035300010B51E2006F0CEFC10BD000010B5052011
:1035400008F004FD5B4B0400984200D8B1E05A49F2
:1035500008F082FF594A0300944200D898E0C0085E
:10356000C20001389B1A0F2800D991E0FCF7E6FE53
:1035700088008000780070006800600058005000EB
:1035800048004000380030002800200018001000DB
:10359000C046C046C046C046C046C046C046C046FB
:1035A000C046C046C046C046C046C046C046C046EB
:1035B000C046C046C046C046C046C046C046C046DB
:1035C000C046C046C046C046C046C046C046C046CB
:1035D000C046C046C046C046C046C046C046C046BB
:1035E000C046C046C046C046C046C046C046C046AB
:1035F000C046C046C046C046C046C046C046C0469B
:10360000C046C046C046C046C046C046C046C0468A
:10361000C046C046C046C046C046C046C046C0467A
:10362000C046C046C046C046C046C046C046C0466A
:10363000C046C046C046C046C046C046C046C0465A
:10364000C046C046C046C046C046C046C046C0464A
:10365000C046C046C046C046C046C046C046C0463A
:10366000C046C046C046C046C046C046C046C0462A
:10367000C046C046C046C046C046C046C046C0461A
:10368000C046C046C046C046C046C046C046C0460A
:10369000581E07280DD8FCF747FE0B0A0908070635
:1036A0000504C046C046C046C046C046C046C046E7
:1036B000C04610BDFF083D0000093D00FF50250237
:1036C00010B5FFF735FF10BD704710B5FFF7FCFFD1
:1036D00010BD0000F7B500F0ADF91E4B1E4E1D7871
:1036E0000400AD1900282CD005220021684608F0FE
:1036F00071FE2800694600F0D1F9184D071E0FD061
:10370000174B052218786946801908F055FE0123E9
:103710002B7000280DD10024FFF7CCFE2000FEBD49
:103720002B788342F7D001000522684608F052FE4C
:103730002F700B4B052218786946301808F052FE9E
:10374000EAE7074B29001878801900F017FAFFF70D
:10375000BCFFE3E705340020FB330020850E00208A
:10376000F033002010B572B6D023BE211B064900ED
:103770005A58002AFCD0BFF35F8F01228240084CC8
:103780009A62C200121905245460064A800080180B
:103790004A224260BFF35F8F5B5062B610BDC046E5
:1037A0000040014000C0014070B50A4C0A4D20683D
:1037B000431C01D0FFF7D6FF0434AC42F7D1074CCD
:1037C000074D2068431C01D0FFF7CCFF0434AC4206
:1037D000F7D170BD60070020740700204807002063
:1037E00060070020F7B5284B0D000093009A8B006E
:1037F0009B5801905A1C46D072B6D022BE201206A9
:10380000400011580029FCD0BFF35F8F01261F4FE5
:10381000D9009E40C919052756624F601C499B007C
:103820005B18402159609661BFF35F8F125062B6FA
:10383000FFF784FE012206210024944615480668FD
:103840000023771C07D0D0231B065B68F340664635
:103850003340013B134001391C43C9B2E4B252006A
:1038600004300029EBD1009AAB00D058431C01D0A2
:10387000FFF778FF21004B1E99412800C9B2FFF7DE
:103880001FFF019B5C55F7BD600700200040014011
:1038900000C0014048070020F0B51E488DB00378F5
:1038A000002B17D11C4B01AA11001C00E0CCE0C179
:1038B00060CC60C119491433E0CAE0C130CA30C1DC
:1038C000110070CB70C270CB70C2154B70C970C341
:1038D00034C934C30378052259424B4105215B4268
:1038E0001A40104B1A70104B8A1A1A70FFF75CFFBF
:1038F0000A2200210D4808F06DFD0A2200210C4823
:1039000008F068FD052000F04BF8FFF7CEFD0DB084
:10391000F0BDC0467407002068C400106007002096
:103920004807002005340020F0330020FB3300203E
:10393000F133002030B585B00A22002101A808F03B
:1039400049FD00242100013401A8E4B2FFF74AFF39
:10395000052CF7D10A220F4801A908F02DFD05001A
:103960006B1E9D41EDB2002804D00A22094801A92E
:1039700008F038FD084B05221978084B0548C9188E
:103980002B0000F00FF80400FFF7A4FE2043C0B2A4
:1039900005B030BDF133002005340020FB3300209A
:1039A00070470000F7B507001C1E134D00910192EF
:1039B00007D001232B7004F067FF104B1860002024
:1039C000FEBD2E789E42FAD00C4B186804F00FFF13
:1039D0000428F4D93900019A009808F0EDFC002879
:1039E00005D03900019A009808F0FCFC340000234F
:1039F00020002B70E4E7C0468C0E0020880E0020CB
:103A000070B5C82406F0D4F9051E08D1013C05485C
:103A1000A4B206F0AEFDAC42F4D106F0B9F928002C
:103A200070BDC04610270000014B58787047C04653
:103A3000900E0020014B18787047C046900E002071
:103A400010B5FFF7F7FF10BD10B5FFF7D9FF084C11
:103A50002070FFF7F5FF6070FFF7E6FF054B187069
:103A6000FFF7E8FF002801D000F046F810BDC0467F
:103A7000900E00207407002010B5FFF7DBFF002830
:103A800001D100F03DF810BD09220020024B1B7847
:103A90009A4240417047C046920E002070B5144CC7
:103AA000050023780E00092B0DD83100280000F006
:103AB00061F8002818D12378FF2B0ED104F022FFE3
:103AC0000C4B188007E00B4B188804F089FEFA2392
:103AD0005B009842E9D2002070BD0133DBB2237055
:103AE000092BEBD80120F7E700232370FAE7C04643
:103AF000920E00208E0E002010B504F0A9FF10BD1C
:103B000010B504F093FF10BDF8B51E0006AB05001C
:103B10001C88002A0ED00C2007006F43134BFF5C5B
:103B2000974200D23A0068431B185888104BC018BF
:103B300008F058FC280004F08FFF071E13D0002C5B
:103B400011D00C210A006A43084B9A181079220000
:103B5000A04200D2020069435B18D988044B3000B0
:103B6000C91808F03FFC3800F8BDC04678070020AF
:103B7000940E002010B500F09BF810BD10B500F0B9
:103B8000A9F810BD30B50D4D85B0286804F02FFEA2
:103B9000012463280FD9FFF7F7FB002302300390BD
:103BA00004220220009303A9FFF7AEFF041E02D0F7
:103BB00004F06AFE2860200005B030BDB00E002081
:103BC000F0B50F25264B89B01C6802AB0022ED181A
:103BD00001230291009311002B001000FFF794FFC6
:103BE0000134061E1F4F2AD01F4B186804F0FFFD3A
:103BF00063281DD900220526110006AB012000967E
:103C0000FFF782FF31000390200002F03DFC2B788B
:103C100083421BD1039B002B18D004F035FE124BBE
:103C200018600522380006A908F0DCFB01240EE02C
:103C30000521200002F028FC2B788342DAD10522EE
:103C4000210006A808F0CEFB002EEAD100240522B0
:103C50003900029808F0C6FB200009B0F0BDC0464C
:103C6000F0C80010A40E0020AC0E0020F0B585B006
:103C7000019002910392FFF707FF0126002800D070
:103C80000936012502990198039B984700280CD119
:103C90000135B54209DC2F0004006F430A200134CE
:103CA00006F018F9BC42F9D1ECE705B0F0BD000010
:103CB00070B5064A04000D00FFF7D8FF002804D0B5
:103CC00029002000024AFFF7D1FF70BDC13B001060
:103CD000853B001070B50E0008F052F80D4B052220
:103CE0001C683100601C08F07DFB0521601C02F09F
:103CF000CBFB207008F04CF808F042F8064BA068A7
:103D00001A68904202D01860FFF730FB08F040F8C4
:103D100070BDC046F0C80010A00E002010B5FFF71F
:103D2000C9F810BD10B504F068FD05F09EFBFFF763
:103D300059F805F09FFBFFF795F805F0AFFB05F08C
:103D4000B5FBFFF7EBFF05F0CFFB05F069FB05F0D6
:103D500055FBFFF760F8F2E70300DA680800511C32
:103D600010B5D96019698A4204D21C68002C02D0AF
:103D70005968A04710BD9B689854FBE7F0B5140044
:103D8000C26885B0029202221F000A9B05001A40F9
:103D9000039101929B0708D1260004E0202128000E
:103DA000FFF7DAFF0136BE42F8D3002C04D1019BA5
:103DB000A3420CD105B0F0BD039B013C2800195D66
:103DC000FFF7CAFFF1E720212800FFF7C5FFEB68E6
:103DD000029A9B1ABB42F6D3ECE70000F0B58FB015
:103DE0001D00169C05900392002921D123051BD4A8
:103DF000302304AA1372203B9C4301310A00A3071D
:103E000040D4012315982340002839D0002B39D005
:103E1000039B002B02D10C331C4202D0159B013BAB
:103E200015930A00302325E0102DE7D1AC43E5E7D8
:103E30006123A20600D541230E0000270A3B04930C
:103E40002900300008F0F8FA049B8446CB180929B1
:103E500001D80B00303304AA0832791CD355B5427F
:103E6000CCD866462029C9D00F00E9E704A808305D
:103E7000835401321598904204D9202AF6D101E0EA
:103E80008342CED1302303E004A8083083540132AA
:103E90001498904201D9202AF6D1082D03D19142DD
:103EA00001D210239C432B4B1C4238D0230522D433
:103EB000002A20D0149B934202D0159B93421AD122
:103EC000914202D2013A002A15D0234BEB40DB0786
:103ED0001ED591423AD2013A102D12D1A30629D40F
:103EE000202A10D12022159B0598009406A9FFF7DF
:103EF00045FF0FB0F0BD102DF0D0022D08D1202AC3
:103F0000F0D0622300E0782304A908318B540132F9
:103F1000202AE7D0302304A908318B540132202A0B
:103F2000E0D0039B002B09D02D2304A908318B542A
:103F30000132D8E75823202AE6D1D3E7630701D519
:103F40002B23F2E72307CED52023EEE7102DD6D181
:103F5000C4E7C046102000000400010010B5FFF7C0
:103F60009BFA10BDF0B5070014008BB00591059BBE
:103F70001978002911D13B688B420BD13A698A42EA
:103F800008D0B968994205D0FB689A4200D8531E00
:103F90000022CA54F8680BB0F0BD059B0020013325
:103FA000059325290AD03800FFF7D6FEDFE72D2B31
:103FB0001CD0302B22D12F3B18430592059B059A2C
:103FC0001B7801322B2B13D0F1D8202B12D0232BAE
:103FD00012D0002104912A2B1DD108CC8B4202DA89
:103FE000023108435B420493059214E00223E3E7A5
:103FF0000423E1E70823DFE71023DDE71D000021AC
:10400000303D04910A31092DE3D8059B1A7813003D
:10401000303B092B10D9059B00251A782E2A1DD17B
:10402000802212011043059A013352781100303971
:10403000092930D80A210CE0059B01330593049B24
:104040004B43303BD3180493DFE74D43303D0133FE
:1040500055191A781600303E092EF6D91A78591CCF
:104060006C2A28D020D8682A2DD06A2A34D0197812
:1040700001330593782996D8632930D862297BD0FB
:10408000632900D1A4E025298DD058298BD1202384
:104090001843103B53E02A2AE0D120CCEB43DB1736
:1040A0001D40059B0233D9E7742A01D07A2ADED15C
:1040B00080239B000BE05A786C2AF9D1C022D200F1
:1040C00010430233D3E75A78682A03D08023184379
:1040D0000B00CCE7C022F3E78023DB00F7E70B00FF
:1040E0000126643BDBB29E4032007F4B1A401E42E9
:1040F00013D1732900D193E0702900D053E77B4B93
:1041000002CC0343002900D0E5E0009305220A23F6
:1041100038007749FFF732FE29E7642901D0692981
:1041200006D18023DB01184310239843063B06E0A9
:1041300008236F2903D0F7D9DB187829F4D10205B9
:1041400001D5012290438022D200024041041FD5B4
:10415000002A00D00BE7261D82050FD52168CC1759
:1041600002900498CA0F0919614001900095380027
:10417000FFF734FE3400FAE60223E0E7420602D5F8
:1041800000216156EBE70206E8D50022A15EE6E7D2
:10419000002A00D0EBE60C2106008E43B446261D13
:1041A000810506D561460291049900950191216827
:1041B000DDE72168420607D5C9B262460292049A39
:1041C000009501920022D2E70006F6D589B2F4E705
:1041D0000223060001251E4018420DD1350003E0E0
:1041E00020213800FFF7B8FD049B01359D42F7D32D
:1041F0009D1C5A1E9341ED1A2178231D3800C9B227
:104200000693FFF7A9FD002E06D1069CAFE62021FC
:1042100038000135FFF7A0FD049BAB42F7D8F4E767
:10422000230004CB06920793002A08D100900622AF
:1042300038003049049BFFF7A1FD079C97E62B1E31
:1042400000D12D4B069A1400D3182278002A01D0F1
:10425000A34213D1069B0200E41A80231B011A40DB
:104260000892184202D0AC4200D92C00022302006E
:104270001A400992184212D1260006E00134E4E700
:1042800020213800FFF768FD0136049BB342F7D8C0
:10429000049A0023A24200D3131B01341C19069E6A
:1042A00003E038000136FFF757FD3178002906D0CA
:1042B000089B002BF5D0069B5B199E42F1D1099B10
:1042C000002BBAD0049BA342B7D920213800013477
:1042D000FFF742FDF6E702930A23380001930095A9
:1042E0000633FFF77BFD42E62108120001200000A3
:1042F0003FC8001038C80010FFFFFF7F7FB5074B95
:104300000A0001930023029303930493044B0100DA
:1043100001A80593FFF726FE07B000BD5D3F001022
:10432000FFFFFF7F0FB407B504A901C90191FFF793
:10433000E5FF03B008BC04B0184713B56B46DC1D9D
:104340000023010001222000237000F07BF8207878
:1043500016BD13B56B469C1D0023010002222000F0
:10436000238000F06FF8208816BD002307B50100F8
:1043700001A80422019300F065F801980EBD07B56D
:104380006B46D97101220100D81D00F062F807BD0B
:1043900007B56B46D98002220100981D00F059F83C
:1043A00007BD07B504220191010001A800F051F8F2
:1043B00007BDF8B51400D31D6A46DB08DB00D31A2D
:1043C00000AF9D460500220068460E0000F03AF856
:1043D00022006946280007F0EFFF002804D02200E1
:1043E0003100280000F035F8BD46F8BD70B50D006D
:1043F0000400FFF7A2FFA84203D029002000FFF726
:10440000BEFF70BD70B50D000400FFF7A2FFA8420B
:1044100003D029002000FFF7BBFF70BD70B50D0071
:104420000400FFF7A2FFA84203D029002000FFF7F5
:10443000B8FF70BD10B500F079F910BD10B500F0EF
:1044400047F810BD0B0010B50100180000F058F837
:1044500010BD0B0010B50100180000F0BDF810BD34
:10446000802210B5054C00212000520107F0B2FF58
:104470008022034B5201A35010BDC046B40E002051
:104480000810000070B5064D064C02202B5D002B75
:1044900005D100F01DFA002801D00120285570BD7B
:1044A000B40E00200410000070B5074D074C022325
:1044B0002A5D002A06D000F03CFA031E02D0002339
:1044C0002B550133180070BDB40E002004100000FD
:1044D00070B5FFF7D7FF041E03D1FFF7E5FF2000FB
:1044E00070BD00F0F7F90500FFF7BAFF012C04D109
:1044F000FFF7DAFF431E984105402C00EFE700006C
:1045000070B50C0080218518002349018D4205D823
:1045100003490918200007F065FF0123180070BD4A
:10452000B40E002073B500F0D5F90024A04224D0C9
:10453000FFF7A8FF8022124D06002900200012017B
:1045400000F0DCF9A04210D080210E4A0E4B28006A
:10455000490101F0A7F800900191802004226946EA
:10456000400100F0CBF94400E4B2012E01D1FFF785
:104570009BFF8023054A5B01EA50200076BDC046C0
:10458000B40E002025232284E49CF2CB0810000006
:1045900080218022054B49015B58012010B5920112
:1045A000934201D3FFF7BEFF10BDC046B40E0020FA
:1045B00070B58024074D64010100285900F0B0F95E
:1045C00003000020834204D02B5902332B51FFF704
:1045D000DFFF70BDB40E00208023F0B5160087B059
:1045E0008218050001915B019A4215D84E4F3200A6
:1045F000C7193900019807F0DFFE012400280CD00C
:1046000032000199380007F0EDFEFFF73BFF039001
:1046100000282CD1FFF748FF0024200007B0F0BD90
:10462000012E31D0EB072FD48023DB019D423ED2F7
:10463000019A019B50781B7800021843012823D867
:10464000434258411F234042984360386B0A184345
:104650006B081B02C0B2184380B2FFF7A9FF040029
:10466000012809D1019B023E023502330193002E3D
:10467000D6D1FFF78DFF0400039B012BCDD1FFF7AF
:1046800013FF0028C8D0C8E73F2D10D84020019B59
:1046900028431B78C0B21B021843FFF789FF0400B0
:1046A0000128E9D1019B013E2D181B18DEE7029677
:1046B000052E01D905230293002300240722049329
:1046C00005942B0C1340029A04AFD20013430199B6
:1046D000029A3B70F81C2B0A7B70BD7007F082FEBB
:1046E0003888FFF765FF04000128C5D17888FFF7F7
:1046F0005FFF04000128BFD186420DD0B888FFF7C4
:1047000057FF04000128B7D1032E05D9F888FFF719
:104710004FFF04000128AFD1029B029AF61AED1850
:10472000019B9B18A2E7C046B40E0020F0B587B0ED
:10473000FFF796FE00F0BEF8002805D1FFF790FEC7
:104740000024200007B0F0BD8022564C002021003C
:10475000120100F0F1F8002831D08021524B534A69
:104760002000490100F09EFF060080200D00042279
:1047700004A9400100F0E0F8049BB34202D1059B7C
:10478000AB4201D0FFF76CFE494D02AB9E1D3100DC
:10479000280000F0E1F800285AD03388002B56D0CA
:1047A00004AFDAB2AE1C3B809109012958D002292E
:1047B0005BD0002906D080235B01E65064E0FFF760
:1047C0004FFEBBE70A2102AB3000C91800F0C4F865
:1047D0000028F0D0E0233A78DB02110419400923C5
:1047E00002A81B1818785B782E1D1B0203435BBAC6
:1047F0009FB2D308019307230F43D10819400091BA
:104800007B18802149018B42D5D830231A4206D02B
:10481000300005A900F0A0F80028CCD0AE1D019B07
:104820005B0708D50E2102AB3000C91800F094F8E0
:104830000028C0D002360B2102AB009AE019C9183B
:1048400007F0D0FD802335009B019E429DD30120BF
:1048500080235B01E550002816D0FFF799FE15E094
:104860003F211B0A0A40A354ECE7FF21F82019401E
:1048700080014902014080201B0A5B000B43591C48
:104880004001814208D32650FFF74CFE041E00D0A1
:1048900057E7FFF7E5FD54E79206D20FE2540023F5
:1048A0006354CFE7B40E0020E49CF2CB252322848E
:1048B00008100000802210B503495200034807F099
:1048C00091FD012010BDC04600000010401F0020D7
:1048D0000120704710B5EFF3108372B68021FF20DE
:1048E000054C89014003236007F09EFD236883F394
:1048F0001088012010BDC0463C1F002010B5EFF30A
:10490000108372B6054C2360FF235B03C01807F0C9
:104910009BFD236883F31088012010BD3C1F0020FD
:1049200007B56B46D9800122991DFFF7E7FF0120EB
:104930000EBD01207047000010B55200054C121842
:10494000091A904201D1012010BD035BDB430B52D9
:104950000230F6E700E01F1010B50122FFF7ECFF70
:10496000012010BD10B503F08FFD10BD002210B561
:10497000064B074C074808499A6101329C60D86091
:1049800019611C33202AF7D110BDC046C425002070
:1049900039500010994F0010AD4E001010B50A4369
:1049A00004005B0709D50F2300091C4004430809D4
:1049B0001940014310091A4002430B000020234014
:1049C0008B4203D1944363425C41E0B210BD0000CE
:1049D000A022F0B5124E002185B05200300007F041
:1049E000F9FCC0220F4C00212000520007F0F2FC1D
:1049F000002501AF39002660E8B201F07AFD0028F9
:104A000006D108223900300007F0ECFC3B89A38076
:104A100001350A360C34202DEBD105B0F0BDC0466F
:104A20000634002044240020F823DB01984205D1FD
:104A3000034B1B685A1E93415B4218407047C046A7
:104A40007829002080239B01984202D2FF2809D8B0
:104A50007047C022074B9201C3189BB29342F7D212
:104A6000C0B2F5E7030AC20400D51B010A7813435C
:104A70000B70F5E700E0FFFF73B500260F4C6946A9
:104A8000F0B201F046FD6D46011E11D10822200052
:104A900007F0A0FC211D2888FFF7D4FF208068883C
:104AA000611DFFF7CFFF60802B79A3716B79E371F4
:104AB00001360834202EE2D173BDC04640200020CC
:104AC000F0B500260227244C85B001AD2900F0B2D4
:104AD00001F017FD011E38D120001022083007F028
:104AE00079FC09222B882380AB79A370AB88E37013
:104AF000EB7923712B7A63716B88E380AA566B7A0A
:104B0000002A01DB154A62610122134200D02272A1
:104B10003B4202D0227A3A4322720422134202D04C
:104B2000217A0A4322720822134202D0217A0A43D0
:104B300022721022134202D0217A0A4322722022CA
:104B4000134202D0237A1A43227201361834202EDF
:104B5000BBD105B0F0BDC04640210020402400205C
:104B600010B5FFF703FFFFF733FFFFF7A9FFFFF7CC
:104B700083FF10BDF0B5040089B0202921D1407811
:104B80000D281ED8FBF7D0FB07171F1D1D32444F01
:104B900082868F99A2A50822A14905A807F022FCC8
:104BA0001F220021601C07F015FC06230822237039
:104BB000201D05A917E0FC23237000236370A37058
:104BC000E37009B0F0BDE178A37809021943490107
:104BD000FB29F6D80A002032FC2A00D9FC2220004A
:104BE000904B521AC91807F0FDFBEAE71F22FF217C
:104BF000601C07F0EFFB8C4B05221B6822712370B1
:104C00008A4B1B6863700023A370E3706371D8E75D
:104C10000122864B1A60864B31321A6003F072FE15
:104C2000844B1880CDE7814E7F4F3368804D002B39
:104C300022D000210800FEF741FC0021029005204F
:104C4000FEF73CFC7B4B03901888019303F0C8FDF2
:104C5000642818D9029B002B15D0039B002B12D07F
:104C600003F050FE019B18802B68013B2B60002B4A
:104C700002D1336001333B603B682370336863705B
:104C80002B68A3709DE732232B60F5E70022664B6B
:104C90001A6096E7E078A3780002202221001843EA
:104CA00000F024FC8DE7E078A37800021F22611C4D
:104CB000184300F041FC207083E7E078A3780002FD
:104CC0001C22211D184300F051FCF4E700F0D8FB32
:104CD00077E7A078082800D973E7FBF725FB0512D2
:104CE000203F4A5D687B89001F220021601C07F07D
:104CF00071FB202323706370A370E3701D3BE37787
:104D00005FE7E57800210A2205A807F063FB280089
:104D100005A901F0E6FB20700A22601C49E705ADF9
:104D20000A22211D2800E67807F05CFB2888FFF79F
:104D30007BFE28806888FFF777FE6880A888FFF7E9
:104D400073FEA880E888FFF76FFE2900E880300036
:104D500001F0CBFB2070FFF709FE32E7E5780A226D
:104D6000002105A807F036FB280005A901F0C1FBCA
:104D7000D1E705AD0A22211D2800E67807F032FBB5
:104D80002889FFF751FE29002881300001F0B5FB8A
:104D90002070FFF71DFE14E7E5780A22002105A820
:104DA00007F018FB280005A901F0ABFBB3E705AD40
:104DB0000A22211D2800E67807F014FB6888FFF717
:104DC00033FE29006880300001F09FFB2070FFF760
:104DD00077FEF6E6E5780622002105A807F0FAFA44
:104DE000280005A901F095FB06222070601CE0E672
:104DF00005AD0622211D2800E67807F0F3FA288881
:104E0000FFF712FE28806888FFF70EFE29006880F1
:104E1000300001F082FB2070FFF72EFED1E6C04685
:104E200045C80010F4C8001078290020742900201B
:104E3000702900206E2900200C4B13B518808023A8
:104E40009B01984202D2FBF7B9FF13BD6C46084B99
:104E5000238003F057FD0123034363800223FF33C4
:104E6000A38000980199FCF7A1F9EEE746350020F0
:104E7000F0F0FFFF0B4B13B5188080239B01984285
:104E800002D2FBF7B1FF13BD6C46074B238003F042
:104E900039FD01231843A380608000980199FCF735
:104EA00085F9F0E746350020F0F0FFFF70B5234CA0
:104EB00006000D00C8B2210001F013FB011E37D11E
:104EC0001F4BD88B88421CD000231E4A07F09CFA47
:104ED00000231D4A80185941FA220023920007F04E
:104EE0008BFA05F046FB0022184BEDB2585DB2700C
:104EF00001385A5504281BD8FBF716FA1B050B0D71
:104F00001B000120EDE76088002812D0FFF7B2FFF8
:104F10000EE0A088F8E7E0880028F7D123886088B1
:104F2000002B03D00028F1D11800EFE79842EDD113
:104F300070BD20880028FBD0E8E7C0464429002047
:104F40004835002040420F00E70300004E290020B2
:104F500010B50400FFF770FF0C4BD88B002813D05E
:104F600000230B4A002107F04FFA0023094A80185A
:104F70005941FA220023920007F03EFA05F0F9FAAF
:104F80002000FFF777FF10BD0120F7E7483500202C
:104F900040420F00E703000070B5254C05000E00ED
:104FA000C8B2210001F09DFA00283AD1AA78214B1D
:104FB000F6B2012A0DD16A79500733D4D20731D520
:104FC00002229A556088002810D12088002828D015
:104FD0000CE0022A23D104206A79024217D1D207B9
:104FE00007D403229A55A088002812D0FFF724FF87
:104FF00017E09855E0880028F8D12088002814D0C0
:10500000FFF7A6FF60880028F0D12088EEE7052290
:105010009A552088002804D0FFF79AFFF5E706226A
:105020009A5570BD01229A55CFE76088CEE7C046F9
:10503000442900204E29002070B50D4C0500C8B24F
:10504000210001F04EFA002811D1248884420ED0AC
:10505000AB78032B09D12000FFF77AFF2000FFF780
:1050600077FF2000FFF774FF01E0032BF9D870BD34
:10507000442900207FB50A4B0400C3180E00FF2B03
:1050800009D801AD2900C0B201F02BFA002802D1E5
:10509000288904B070BD3100200000F087FAF8E7DD
:1050A00000A9FFFF2020704700231F2803D81C33CE
:1050B0004343024A9B1818007047C046C42500208D
:1050C00070B54B79002B1ED1174BC01884B2FF2C42
:1050D00019D8164DE0B2290001F003FA002812D1C8
:1050E0001C2363431248C3189B78012B0DD12B88D6
:1050F000002B08D06B88002B05D0AB88EA881343BF
:105100009BB2002B06D0012070BD022BFBD1AB88D7
:10511000002BF8D01C2301226343C018437993432A
:10512000437102F0DFFEEEE700A9FFFF44290020F3
:10513000C42500202020704700231F2803D81833DF
:105140004343024A9B1818007047C0464021002084
:10515000F0B585B002ABD971D91DFFF773FC0127FB
:1051600001242E4B2E4D019002937F420823EE79AD
:105170001E424CD02B88019A934216D12B79AA79E2
:10518000009302ABD87900993300FFF707FC0028A1
:105190000BD00098FBF7ABFF40B2B84205DD07002B
:1051A0006C796B8824021C43A4B26B88019A9342E9
:1051B00018D1B30716D56B79AA79009302ABD879C9
:1051C00000993300FFF7EAFB00280BD00098FBF7AB
:1051D0008EFF40B2874205DA07002C792B88240223
:1051E0001C43A4B201231E4211D07B1C0FD1012C01
:1051F0000DD102ABD87900213300AA79FFF7CEFB9D
:10520000002804D06C796B8824021C43A4B2029B52
:1052100008359D42AAD1200005B0F0BD40210020F4
:105220004020002070B5104C0A21A08807F014F926
:105230000E4D0F4B2870E2880A211A7062890D4BBF
:105240000D4D1A70A2890D4B1A70E08907F004F910
:105250002870228A0A4B1A70628A0A4B1A70A28A34
:10526000094B1A7070BDC04648350020A9070020C0
:10527000A8070020A7070020A5070020A6070020F8
:10528000A4070020A3070020A207002013B50800F0
:10529000032A24D90623134A11785278CC070B40ED
:1052A000E40F234308240C40234310240C402343E1
:1052B00020240C40234340240C40C909C901234346
:1052C0000B43D1079207C90DD20F0B435202134370
:1052D00001A90422019307F085F8002016BD0120E2
:1052E0004042FBE7E833002010B583780C0093427E
:1052F00006D841681A00200007F074F8002010BD9D
:1053000001204042FBE773B50024C6780D000194EC
:10531000A24202D10120404276BD042201A9FFF73A
:10532000E3FF0130F6D00122B240019B2000134080
:105330005A1E93412B70EFE707B5032A36D9042292
:1053400001A807F04FF8FCF77DF80121019A1948F0
:105350009307DB0F11405B000B435107C90F890016
:105360000B431107C90FC9000B43D106C90F09012F
:105370000B439106C90F49010B435106C90F89011F
:105380000B431106C90FC9010B43D105C90F920583
:105390000902D20F0B43520213430288920A92026F
:1053A00013430380FDF7D6FC00200EBD01204042D0
:1053B000FBE7C046E833002010B5024B188800F028
:1053C00001FB10BD4835002070B50024A0B201F0EB
:1053D00080F8054B195D884202D0A0B201F07DF83B
:1053E0000134282CF2D170BD4835002010B58378E7
:1053F000934207D81A00406806F0F4FFFFF7E4FF75
:10540000002010BD01204042FBE7002373B50400DB
:10541000C5780E0001939A4202D10120404276BD28
:10542000042201A9FFF760FF0130F6D00123190023
:10543000A940019A20008A4331780B40AB4001A972
:10544000134304220193FFF7D1FFE8E770B500246E
:10545000A0B201F03EF8084B18550134282CF7D1C2
:105460000024064D2B69002B00D0984701341435D9
:105470001A2CF7D170BDC04648350020F0C9001085
:10548000AF22174B10B51A80164A14205A800A22F0
:10549000D8809A805A81DA8180181E329A82C82177
:1054A0000A32DA82082400229881323099841882E4
:1054B00019831884C339D81C5A839983DA83C17736
:1054C000DA841C815C82FFF77FFFFBF7BBFF802340
:1054D0000548DB000380FDF73DFCFFF7B7FF10BD7B
:1054E0004835002088130000E8330020F0B50D0097
:1054F00085B00190FF212800160006F06BFF002008
:105500000B4B0C4C0093871CB7420FD802AA911D7D
:105510002388019A0B80934204D90222281806F0AE
:1055200061FF3800009B14349C42ECD105B0F0BD03
:10553000F8CB0010F0C90010F8B5060000231427BE
:10554000094C3D005D432819655BB54205D1836870
:10555000002B06D10120404204E001331A2BF0D188
:10556000F8E79847F8BDC046F0C90010F8B5002329
:1055700014270D4C3E005E433519A65B864205D1CB
:10558000EB68002B06D1012464420BE001331A2B97
:10559000F0D1F8E728009847041E03D12B69834215
:1055A00000D098472000F8BDF0C90010014B188BBF
:1055B0007047C046483500200120024B5B7F1840F1
:1055C0007047C04648350020024B587F8007C00F07
:1055D0007047C04648350020014B988C7047C04644
:1055E00048350020024B587F4007C00F7047C04627
:1055F00048350020014BD88A7047C0464835002006
:10560000272806D81D2819D8031F0020192B0ED9CA
:105610007047382805D82C2805D82B2803D000201F
:10562000F6E76428FBD1074BD87E400702E0054B24
:10563000D87EC0060123C00F5840E9E7014BD87E51
:105640000007F7E748350020024BD87E8006C00FE0
:105650007047C04648350020024BD87E4006C00F38
:105660007047C0464835002010B5054A0120527FDA
:10567000120703D508001900FCF7AEFC10BDC046A8
:105680004835002010B51400FCF722FD002806D094
:105690002000FCF71DFD002801D0014BD88C10BD67
:1056A00048350020F0B5471806001900100089B0F1
:1056B000B74201D809B0F0BD33784A01DBB24340AC
:1056C0001C001B02079300230693E30E9B18019313
:1056D000630112220093200000230D0006F094FEC7
:1056E000009A019B8018594100196941EA01630E33
:1056F0009B180393E3010293029A039B801859417C
:105700002A02230E9B18059323020493049A059BF7
:1057100080185941069A079B013680185941C7E7FE
:10572000082210B50F4C23789343237000F090FBB0
:10573000002802D10230FDF721F91022237813420C
:1057400004D0934302202370FDF7F4F8202023783F
:10575000034203D083432370FDF7ECF8FDF726FAEC
:1057600010BDC0469C07002010B50400002902D0DF
:105770000220FDF7FBF8C022054B9201E3189BB213
:10578000934200D2E4B22000FBF718FB10BDC046E4
:1057900000E0FFFFC022054B10B5C3189BB2920179
:1057A000934200D2C0B2FBF71FFB10BD00E0FFFF29
:1057B0000F22030930B51340064C5B001D5B1040FF
:1057C0000E3A824028009043002901D0280010435F
:1057D000E05230BD7C2900200F210309044A0B4010
:1057E0005B009B5A08400341180001231840704792
:1057F0007C290020F7B5464D1C002B780600454F4C
:10580000009101925B0700D472E03888B04202D068
:10581000002E00D06CE004222B78022693431A005D
:1058200001212B703240334209D13B4B00991B8838
:10583000CB1A3A499BB209888B425241D1B201221C
:1058400002262B780A405200B34313432B70FFF714
:10585000AFFFFDF769F8304206D010232A783000F8
:1058600013432B70FDF76EF8FDF75EF82023284DEB
:10587000184205D02A7818001A432A70FDF762F8FA
:105880002978244E890722003088C90FFFF76CFF62
:10589000019B002B05D1224BD88B00280ED1012073
:1058A0001AE021003088FFF7CFFE0028F3D0210056
:1058B0003088FFF7D1FE0028EDD1F7BD0023194A4B
:1058C000002106F0A1FD0023174A80185941FA2251
:1058D0000023920006F090FD04F04BFE2978220090
:1058E00089073088C90FFFF755FFFFF719FF0AE056
:1058F0003000FFF771FF220001003000FFF74AFF80
:105900003B88B342F1D0044B009A1A80D5E7C046D9
:105910009C070020A6290020A82900209E0700201F
:105920004835002040420F00E703000010B5012475
:105930000C4BDB7E1C4214D00B4B1B785B0710D545
:1059400002F0E0FF094B0A4A1B881288C31A9BB277
:1059500001009A4205D8074A074B10882200FFF73A
:1059600049FF10BD483500209C070020A8290020D1
:105970009E070020A62900209C290020012010B5A8
:10598000040005490B78DA07D20F9443834323437D
:105990000B70FFF7C5FE10BD9C070020012110B55C
:1059A000034A13788B431370FFF7BAFE10BDC0464D
:1059B0009C070020024B1878C007C00F7047C046F4
:1059C0009C070020014B18807047C0469E070020AE
:1059D000F0B57B4F0400FB7E0D0085B0DB0722D5C0
:1059E00002F090FF02906B79002B5FD0754E3378F8
:1059F0005B0705D500220100734B1000FFF7FAFE8C
:105A0000724B9C424FD0724B9C420FD0714B9C42C8
:105A100013D0C022704B9201E3189BB2934207D27D
:105A200000226E4B1A80012005B0F0BDFFF7A6FFE3
:105A3000644B1B78DB07F6D503E001233278134370
:105A4000337029002000FFF7DBFD6A79002800D1C0
:105A5000B2E0002A00D1A9E0FCF766FF0600FCF7DF
:105A6000B9FF304302265D4BC0B2B043019333D03F
:105A70000023019A1380FB7E37001F401E422BD16A
:105A800039002000FFF794FE2A0039002000FFF7BC
:105A90006BFEFCF79FFFB043C0B2FCF7F5FF300090
:105AA000FDF7C8F85BE0FFF779FFC1E7E12C05D10E
:105AB0001021444A13788B431370B9E7E52C03D1C6
:105AC000404A20211378F6E7C022434B9201E318A5
:105AD0009BB29342ACD2A6E73B4E0A22300029008B
